{
  "_format": "hh-sol-artifact-1",
  "contractName": "InheritanceVault",
  "sourceName": "contracts/InheritanceVault.sol",
  "abi": [
    {
      "inputs": [
        {
          "internalType": "address",
          "name": "semaphoreAddress",
          "type": "address"
        },
        {
          "internalType": "uint256",
          "name": "_heartbeatInterval",
          "type": "uint256"
        },
        {
          "internalType": "uint256",
          "name": "_challengeWindow",
          "type": "uint256"
        }
      ],
      "stateMutability": "nonpayable",
      "type": "constructor"
    },
    {
      "inputs": [],
      "name": "AllHeirsClaimed",
      "type": "error"
    },
    {
      "inputs": [],
      "name": "AlreadyInitialized",
      "type": "error"
    },
    {
      "inputs": [],
      "name": "ChallengeWindowOver",
      "type": "error"
    },
    {
      "inputs": [],
      "name": "ClaimNotOpen",
      "type": "error"
    },
    {
      "inputs": [],
      "name": "DepositsFrozen",
      "type": "error"
    },
    {
      "inputs": [],
      "name": "Expired",
      "type": "error"
    },
    {
      "inputs": [],
      "name": "ExpiryAlreadyStarted",
      "type": "error"
    },
    {
      "inputs": [],
      "name": "ExpiryNotStarted",
      "type": "error"
    },
    {
      "inputs": [],
      "name": "InvalidAmount",
      "type": "error"
    },
    {
      "inputs": [],
      "name": "InvalidParams",
      "type": "error"
    },
    {
      "inputs": [],
      "name": "InvalidProof",
      "type": "error"
    },
    {
      "inputs": [],
      "name": "NewOwnerIsZeroAddress",
      "type": "error"
    },
    {
      "inputs": [],
      "name": "NoHandoverRequest",
      "type": "error"
    },
    {
      "inputs": [],
      "name": "NoHeirs",
      "type": "error"
    },
    {
      "inputs": [],
      "name": "NotAlive",
      "type": "error"
    },
    {
      "inputs": [],
      "name": "NotInChallengeWindow",
      "type": "error"
    },
    {
      "inputs": [],
      "name": "ReentrancyGuardReentrantCall",
      "type": "error"
    },
    {
      "inputs": [
        {
          "internalType": "address",
          "name": "token",
          "type": "address"
        }
      ],
      "name": "SafeERC20FailedOperation",
      "type": "error"
    },
    {
      "inputs": [],
      "name": "StillAlive",
      "type": "error"
    },
    {
      "inputs": [],
      "name": "Unauthorized",
      "type": "error"
    },
    {
      "inputs": [],
      "name": "ZeroAddress",
      "type": "error"
    },
    {
      "anonymous": false,
      "inputs": [
        {
          "indexed": false,
          "internalType": "bytes32",
          "name": "nullifierHash",
          "type": "bytes32"
        },
        {
          "indexed": false,
          "internalType": "address",
          "name": "to",
          "type": "address"
        },
        {
          "indexed": false,
          "internalType": "uint256",
          "name": "amount",
          "type": "uint256"
        },
        {
          "indexed": false,
          "internalType": "bytes",
          "name": "signal",
          "type": "bytes"
        }
      ],
      "name": "Claimed",
      "type": "event"
    },
    {
      "anonymous": false,
      "inputs": [
        {
          "indexed": true,
          "internalType": "address",
          "name": "token",
          "type": "address"
        },
        {
          "indexed": false,
          "internalType": "uint256",
          "name": "amount",
          "type": "uint256"
        }
      ],
      "name": "ERC20Deposited",
      "type": "event"
    },
    {
      "anonymous": false,
      "inputs": [
        {
          "indexed": false,
          "internalType": "uint256",
          "name": "amount",
          "type": "uint256"
        }
      ],
      "name": "ETHDeposited",
      "type": "event"
    },
    {
      "anonymous": false,
      "inputs": [
        {
          "indexed": false,
          "internalType": "uint256",
          "name": "at",
          "type": "uint256"
        }
      ],
      "name": "ExpiryRevoked",
      "type": "event"
    },
    {
      "anonymous": false,
      "inputs": [
        {
          "indexed": false,
          "internalType": "uint256",
          "name": "at",
          "type": "uint256"
        },
        {
          "indexed": false,
          "internalType": "uint256",
          "name": "challengeWindowEnd",
          "type": "uint256"
        }
      ],
      "name": "ExpiryStarted",
      "type": "event"
    },
    {
      "anonymous": false,
      "inputs": [
        {
          "indexed": true,
          "internalType": "uint256",
          "name": "oldGroupId",
          "type": "uint256"
        },
        {
          "indexed": true,
          "internalType": "uint256",
          "name": "newGroupId",
          "type": "uint256"
        }
      ],
      "name": "GroupIdUpdated",
      "type": "event"
    },
    {
      "anonymous": false,
      "inputs": [
        {
          "indexed": false,
          "internalType": "uint256",
          "name": "nextDeadline",
          "type": "uint256"
        }
      ],
      "name": "Heartbeat",
      "type": "event"
    },
    {
      "anonymous": false,
      "inputs": [
        {
          "indexed": true,
          "internalType": "address",
          "name": "pendingOwner",
          "type": "address"
        }
      ],
      "name": "OwnershipHandoverCanceled",
      "type": "event"
    },
    {
      "anonymous": false,
      "inputs": [
        {
          "indexed": true,
          "internalType": "address",
          "name": "pendingOwner",
          "type": "address"
        }
      ],
      "name": "OwnershipHandoverRequested",
      "type": "event"
    },
    {
      "anonymous": false,
      "inputs": [
        {
          "indexed": true,
          "internalType": "address",
          "name": "oldOwner",
          "type": "address"
        },
        {
          "indexed": true,
          "internalType": "address",
          "name": "newOwner",
          "type": "address"
        }
      ],
      "name": "OwnershipTransferred",
      "type": "event"
    },
    {
      "anonymous": false,
      "inputs": [
        {
          "indexed": true,
          "internalType": "address",
          "name": "oldSemaphore",
          "type": "address"
        },
        {
          "indexed": true,
          "internalType": "address",
          "name": "newSemaphore",
          "type": "address"
        }
      ],
      "name": "SemaphoreUpdated",
      "type": "event"
    },
    {
      "anonymous": false,
      "inputs": [
        {
          "indexed": false,
          "internalType": "uint256",
          "name": "heirsTotal",
          "type": "uint256"
        },
        {
          "indexed": false,
          "internalType": "uint256",
          "name": "ethAmount",
          "type": "uint256"
        },
        {
          "indexed": false,
          "internalType": "address[]",
          "name": "tokens",
          "type": "address[]"
        }
      ],
      "name": "SnapshotTaken",
      "type": "event"
    },
    {
      "inputs": [
        {
          "internalType": "uint256",
          "name": "identityCommitment",
          "type": "uint256"
        }
      ],
      "name": "addHeir",
      "outputs": [],
      "stateMutability": "nonpayable",
      "type": "function"
    },
    {
      "inputs": [],
      "name": "cancelOwnershipHandover",
      "outputs": [],
      "stateMutability": "payable",
      "type": "function"
    },
    {
      "inputs": [],
      "name": "challengeWindow",
      "outputs": [
        {
          "internalType": "uint256",
          "name": "",
          "type": "uint256"
        }
      ],
      "stateMutability": "view",
      "type": "function"
    },
    {
      "inputs": [],
      "name": "challengeWindowEnd",
      "outputs": [
        {
          "internalType": "uint256",
          "name": "",
          "type": "uint256"
        }
      ],
      "stateMutability": "view",
      "type": "function"
    },
    {
      "inputs": [
        {
          "internalType": "uint256",
          "name": "merkleTreeDepth",
          "type": "uint256"
        },
        {
          "internalType": "uint256",
          "name": "merkleTreeRoot",
          "type": "uint256"
        },
        {
          "internalType": "uint256",
          "name": "nullifier",
          "type": "uint256"
        },
        {
          "internalType": "uint256",
          "name": "signal",
          "type": "uint256"
        },
        {
          "internalType": "uint256[8]",
          "name": "points",
          "type": "uint256[8]"
        },
        {
          "internalType": "address",
          "name": "to",
          "type": "address"
        },
        {
          "internalType": "uint256",
          "name": "amount",
          "type": "uint256"
        }
      ],
      "name": "claim",
      "outputs": [],
      "stateMutability": "nonpayable",
      "type": "function"
    },
    {
      "inputs": [],
      "name": "claimOpen",
      "outputs": [
        {
          "internalType": "bool",
          "name": "",
          "type": "bool"
        }
      ],
      "stateMutability": "view",
      "type": "function"
    },
    {
      "inputs": [
        {
          "internalType": "address",
          "name": "pendingOwner",
          "type": "address"
        }
      ],
      "name": "completeOwnershipHandover",
      "outputs": [],
      "stateMutability": "payable",
      "type": "function"
    },
    {
      "inputs": [
        {
          "internalType": "address",
          "name": "token",
          "type": "address"
        },
        {
          "internalType": "uint256",
          "name": "amount",
          "type": "uint256"
        }
      ],
      "name": "depositERC20",
      "outputs": [],
      "stateMutability": "nonpayable",
      "type": "function"
    },
    {
      "inputs": [],
      "name": "depositETH",
      "outputs": [],
      "stateMutability": "payable",
      "type": "function"
    },
    {
      "inputs": [],
      "name": "frozen",
      "outputs": [
        {
          "internalType": "bool",
          "name": "",
          "type": "bool"
        }
      ],
      "stateMutability": "view",
      "type": "function"
    },
    {
      "inputs": [],
      "name": "getAllTokens",
      "outputs": [
        {
          "internalType": "address[]",
          "name": "",
          "type": "address[]"
        }
      ],
      "stateMutability": "view",
      "type": "function"
    },
    {
      "inputs": [
        {
          "internalType": "address",
          "name": "token",
          "type": "address"
        }
      ],
      "name": "getRemainingBalance",
      "outputs": [
        {
          "internalType": "uint256",
          "name": "",
          "type": "uint256"
        }
      ],
      "stateMutability": "view",
      "type": "function"
    },
    {
      "inputs": [
        {
          "internalType": "address",
          "name": "token",
          "type": "address"
        }
      ],
      "name": "getSnapshotBalance",
      "outputs": [
        {
          "internalType": "uint256",
          "name": "",
          "type": "uint256"
        }
      ],
      "stateMutability": "view",
      "type": "function"
    },
    {
      "inputs": [
        {
          "internalType": "uint256",
          "name": "index",
          "type": "uint256"
        }
      ],
      "name": "getToken",
      "outputs": [
        {
          "internalType": "address",
          "name": "",
          "type": "address"
        }
      ],
      "stateMutability": "view",
      "type": "function"
    },
    {
      "inputs": [],
      "name": "getTokenCount",
      "outputs": [
        {
          "internalType": "uint256",
          "name": "",
          "type": "uint256"
        }
      ],
      "stateMutability": "view",
      "type": "function"
    },
    {
      "inputs": [],
      "name": "groupId",
      "outputs": [
        {
          "internalType": "uint256",
          "name": "",
          "type": "uint256"
        }
      ],
      "stateMutability": "view",
      "type": "function"
    },
    {
      "inputs": [],
      "name": "heartbeatInterval",
      "outputs": [
        {
          "internalType": "uint256",
          "name": "",
          "type": "uint256"
        }
      ],
      "stateMutability": "view",
      "type": "function"
    },
    {
      "inputs": [],
      "name": "heirsRemaining",
      "outputs": [
        {
          "internalType": "uint256",
          "name": "",
          "type": "uint256"
        }
      ],
      "stateMutability": "view",
      "type": "function"
    },
    {
      "inputs": [],
      "name": "heirsTotal",
      "outputs": [
        {
          "internalType": "uint256",
          "name": "",
          "type": "uint256"
        }
      ],
      "stateMutability": "view",
      "type": "function"
    },
    {
      "inputs": [],
      "name": "inChallengeWindow",
      "outputs": [
        {
          "internalType": "bool",
          "name": "",
          "type": "bool"
        }
      ],
      "stateMutability": "view",
      "type": "function"
    },
    {
      "inputs": [],
      "name": "inExpiry",
      "outputs": [
        {
          "internalType": "bool",
          "name": "",
          "type": "bool"
        }
      ],
      "stateMutability": "view",
      "type": "function"
    },
    {
      "inputs": [],
      "name": "isAlive",
      "outputs": [
        {
          "internalType": "bool",
          "name": "",
          "type": "bool"
        }
      ],
      "stateMutability": "view",
      "type": "function"
    },
    {
      "inputs": [],
      "name": "keepAlive",
      "outputs": [],
      "stateMutability": "nonpayable",
      "type": "function"
    },
    {
      "inputs": [
        {
          "internalType": "address",
          "name": "",
          "type": "address"
        }
      ],
      "name": "knownToken",
      "outputs": [
        {
          "internalType": "bool",
          "name": "",
          "type": "bool"
        }
      ],
      "stateMutability": "view",
      "type": "function"
    },
    {
      "inputs": [],
      "name": "nextDeadline",
      "outputs": [
        {
          "internalType": "uint256",
          "name": "",
          "type": "uint256"
        }
      ],
      "stateMutability": "view",
      "type": "function"
    },
    {
      "inputs": [],
      "name": "owner",
      "outputs": [
        {
          "internalType": "address",
          "name": "result",
          "type": "address"
        }
      ],
      "stateMutability": "view",
      "type": "function"
    },
    {
      "inputs": [
        {
          "internalType": "address",
          "name": "pendingOwner",
          "type": "address"
        }
      ],
      "name": "ownershipHandoverExpiresAt",
      "outputs": [
        {
          "internalType": "uint256",
          "name": "result",
          "type": "uint256"
        }
      ],
      "stateMutability": "view",
      "type": "function"
    },
    {
      "inputs": [
        {
          "internalType": "address",
          "name": "",
          "type": "address"
        }
      ],
      "name": "remaining",
      "outputs": [
        {
          "internalType": "uint256",
          "name": "",
          "type": "uint256"
        }
      ],
      "stateMutability": "view",
      "type": "function"
    },
    {
      "inputs": [],
      "name": "remainingETH",
      "outputs": [
        {
          "internalType": "uint256",
          "name": "",
          "type": "uint256"
        }
      ],
      "stateMutability": "view",
      "type": "function"
    },
    {
      "inputs": [],
      "name": "renounceOwnership",
      "outputs": [],
      "stateMutability": "payable",
      "type": "function"
    },
    {
      "inputs": [],
      "name": "requestOwnershipHandover",
      "outputs": [],
      "stateMutability": "payable",
      "type": "function"
    },
    {
      "inputs": [],
      "name": "revokeExpiry",
      "outputs": [],
      "stateMutability": "nonpayable",
      "type": "function"
    },
    {
      "inputs": [],
      "name": "semaphore",
      "outputs": [
        {
          "internalType": "contract ISemaphore",
          "name": "",
          "type": "address"
        }
      ],
      "stateMutability": "view",
      "type": "function"
    },
    {
      "inputs": [
        {
          "internalType": "uint256",
          "name": "newGroupId",
          "type": "uint256"
        }
      ],
      "name": "setGroupId",
      "outputs": [],
      "stateMutability": "nonpayable",
      "type": "function"
    },
    {
      "inputs": [
        {
          "internalType": "address",
          "name": "newSemaphore",
          "type": "address"
        }
      ],
      "name": "setSemaphore",
      "outputs": [],
      "stateMutability": "nonpayable",
      "type": "function"
    },
    {
      "inputs": [
        {
          "internalType": "address",
          "name": "",
          "type": "address"
        }
      ],
      "name": "snapshot",
      "outputs": [
        {
          "internalType": "uint256",
          "name": "",
          "type": "uint256"
        }
      ],
      "stateMutability": "view",
      "type": "function"
    },
    {
      "inputs": [],
      "name": "snapshotETH",
      "outputs": [
        {
          "internalType": "uint256",
          "name": "",
          "type": "uint256"
        }
      ],
      "stateMutability": "view",
      "type": "function"
    },
    {
      "inputs": [],
      "name": "startExpiry",
      "outputs": [],
      "stateMutability": "nonpayable",
      "type": "function"
    },
    {
      "inputs": [
        {
          "internalType": "uint256",
          "name": "",
          "type": "uint256"
        }
      ],
      "name": "tokens",
      "outputs": [
        {
          "internalType": "address",
          "name": "",
          "type": "address"
        }
      ],
      "stateMutability": "view",
      "type": "function"
    },
    {
      "inputs": [
        {
          "internalType": "address",
          "name": "newOwner",
          "type": "address"
        }
      ],
      "name": "transferOwnership",
      "outputs": [],
      "stateMutability": "payable",
      "type": "function"
    }
  ],
  "bytecode": "0x60806040523480156200001157600080fd5b506040516200342a3803806200342a833981810160405281019062000037919062000410565b6001600081905550600073ffffffffffffffffffffffffffffffffffffffff168373ffffffffffffffffffffffffffffffffffffffff1603620000a6576040517fd92e233d00000000000000000000000000000000000000000000000000000000815260040160405180910390fd5b6000821480620000b65750600081145b15620000ee576040517fa86b651200000000000000000000000000000000000000000000000000000000815260040160405180910390fd5b620000ff336200028060201b60201c565b82600160006101000a81548173ffffffffffffffffffffffffffffffffffffffff021916908373ffffffffffffffffffffffffffffffffffffffff160217905550816003819055508060058190555081426200015c91906200049b565b600481905550600160009054906101000a900473ffffffffffffffffffffffffffffffffffffffff1673ffffffffffffffffffffffffffffffffffffffff16635c3f3b60306040518263ffffffff1660e01b8152600401620001bf9190620004e7565b6020604051808303816000875af1158015620001df573d6000803e3d6000fd5b505050506040513d601f19601f8201168201806040525081019062000205919062000504565b60028190555060025460007f6e7dd825a86782539ff2639bbdf0ef7cea96f10e05d6594e6069cb805384508660405160405180910390a37f89fa7599b0d9bfca448ea0eda6c061927c29af53b03bbf51b770ec8caf3f7e2d6004546040516200026f919062000547565b60405180910390a150505062000564565b620002906200036660201b60201c565b156200030e577fffffffffffffffffffffffffffffffffffffffffffffffffffffffff74873927805415620002cd57630dc149f06000526004601cfd5b8160601b60601c9150811560ff1b821781558160007f8be0079c531659141344cd1fd0a4f28419497f9722a3daafe3b4186f6b6457e0600080a35062000363565b8060601b60601c9050807fffffffffffffffffffffffffffffffffffffffffffffffffffffffff74873927558060007f8be0079c531659141344cd1fd0a4f28419497f9722a3daafe3b4186f6b6457e0600080a35b50565b600090565b600080fd5b600073ffffffffffffffffffffffffffffffffffffffff82169050919050565b60006200039d8262000370565b9050919050565b620003af8162000390565b8114620003bb57600080fd5b50565b600081519050620003cf81620003a4565b92915050565b6000819050919050565b620003ea81620003d5565b8114620003f657600080fd5b50565b6000815190506200040a81620003df565b92915050565b6000806000606084860312156200042c576200042b6200036b565b5b60006200043c86828701620003be565b93505060206200044f86828701620003f9565b92505060406200046286828701620003f9565b9150509250925092565b7f4e487b7100000000000000000000000000000000000000000000000000000000600052601160045260246000fd5b6000620004a882620003d5565b9150620004b583620003d5565b9250828201905080821115620004d057620004cf6200046c565b5b92915050565b620004e18162000390565b82525050565b6000602082019050620004fe6000830184620004d6565b92915050565b6000602082840312156200051d576200051c6200036b565b5b60006200052d84828501620003f9565b91505092915050565b6200054181620003d5565b82525050565b60006020820190506200055e600083018462000536565b92915050565b612eb680620005746000396000f3fe60806040526004361061023a5760003560e01c80637b5d25341161012e578063c627ae5f116100ab578063f2fde38b1161006f578063f2fde38b146107fc578063f6326fb314610818578063f79f524514610822578063fee81cf414610839578063ffa28fa9146108765761023a565b8063c627ae5f14610722578063e16dce831461074d578063e4b50cb814610778578063ee1c28b8146107b5578063f04e283e146107e05761023a565b80639b06a642116100f25780639b06a64214610629578063a0191fd214610654578063a0f44c921461067d578063ade535b7146106a8578063b399b0bc146106e55761023a565b80637b5d253414610568578063861a14121461059357806387740c0d146105be5780638da5cb5b146105d557806397feb926146106005761023a565b80633f40e014116101bc578063561a4fac11610180578063561a4fac146104a25780635a58de2f146104cd578063646b45b7146104f6578063715018a61461053357806378a895671461053d5761023a565b80633f40e014146103da5780634136aa35146104055780634b8bcb58146104305780634f64b2be1461045b57806354d1f13d146104985761023a565b8063265121601161020357806326512160146103055780632a5c792a146103425780632a642bfe1461036d5780632b8afe6e146103845780632c7acf8c146103af5761023a565b80621bf8f61461023f578063054f7d9c1461027c5780630b14486a146102a757806320517984146102d057806325692962146102fb575b600080fd5b34801561024b57600080fd5b50610266600480360381019061026191906123db565b61089f565b6040516102739190612421565b60405180910390f35b34801561028857600080fd5b506102916108e8565b60405161029e9190612457565b60405180910390f35b3480156102b357600080fd5b506102ce60048036038101906102c991906124c5565b6108fb565b005b3480156102dc57600080fd5b506102e5610faf565b6040516102f29190612421565b60405180910390f35b610303610fb5565b005b34801561031157600080fd5b5061032c600480360381019061032791906123db565b611009565b6040516103399190612421565b60405180910390f35b34801561034e57600080fd5b50610357611021565b6040516103649190612628565b60405180910390f35b34801561037957600080fd5b506103826110af565b005b34801561039057600080fd5b506103996112e4565b6040516103a69190612421565b60405180910390f35b3480156103bb57600080fd5b506103c46112ea565b6040516103d19190612421565b60405180910390f35b3480156103e657600080fd5b506103ef6112f0565b6040516103fc9190612421565b60405180910390f35b34801561041157600080fd5b5061041a6112f6565b6040516104279190612457565b60405180910390f35b34801561043c57600080fd5b50610445611310565b6040516104529190612457565b60405180910390f35b34801561046757600080fd5b50610482600480360381019061047d919061264a565b61132a565b60405161048f9190612686565b60405180910390f35b6104a0611369565b005b3480156104ae57600080fd5b506104b76113a5565b6040516104c49190612421565b60405180910390f35b3480156104d957600080fd5b506104f460048036038101906104ef91906123db565b6113ab565b005b34801561050257600080fd5b5061051d600480360381019061051891906123db565b6114df565b60405161052a9190612421565b60405180910390f35b61053b611528565b005b34801561054957600080fd5b5061055261153c565b60405161055f9190612421565b60405180910390f35b34801561057457600080fd5b5061057d611549565b60405161058a9190612700565b60405180910390f35b34801561059f57600080fd5b506105a861156f565b6040516105b59190612421565b60405180910390f35b3480156105ca57600080fd5b506105d3611575565b005b3480156105e157600080fd5b506105ea611616565b6040516105f79190612686565b60405180910390f35b34801561060c57600080fd5b506106276004803603810190610622919061271b565b61163f565b005b34801561063557600080fd5b5061063e6118e3565b60405161064b9190612457565b60405180910390f35b34801561066057600080fd5b5061067b6004803603810190610676919061264a565b6118fe565b005b34801561068957600080fd5b50610692611990565b60405161069f9190612421565b60405180910390f35b3480156106b457600080fd5b506106cf60048036038101906106ca91906123db565b611996565b6040516106dc9190612457565b60405180910390f35b3480156106f157600080fd5b5061070c600480360381019061070791906123db565b6119b6565b6040516107199190612421565b60405180910390f35b34801561072e57600080fd5b506107376119ce565b6040516107449190612457565b60405180910390f35b34801561075957600080fd5b506107626119db565b60405161076f9190612421565b60405180910390f35b34801561078457600080fd5b5061079f600480360381019061079a919061264a565b6119e1565b6040516107ac9190612686565b60405180910390f35b3480156107c157600080fd5b506107ca611a70565b6040516107d79190612421565b60405180910390f35b6107fa60048036038101906107f591906123db565b611a76565b005b610816600480360381019061081191906123db565b611ab7565b005b610820611ae1565b005b34801561082e57600080fd5b50610837611bed565b005b34801561084557600080fd5b50610860600480360381019061085b91906123db565b611f74565b60405161086d9190612421565b60405180910390f35b34801561088257600080fd5b5061089d6004803603810190610898919061264a565b611f8f565b005b6000600f60008373ffffffffffffffffffffffffffffffffffffffff1673ffffffffffffffffffffffffffffffffffffffff168152602001908152602001600020549050919050565b600760009054906101000a900460ff1681565b610903612075565b60006006540361093f576040517f2899fdac00000000000000000000000000000000000000000000000000000000815260040160405180910390fd5b600654421161097a576040517f6b68780600000000000000000000000000000000000000000000000000000000815260040160405180910390fd5b600073ffffffffffffffffffffffffffffffffffffffff168273ffffffffffffffffffffffffffffffffffffffff16036109e0576040517fd92e233d00000000000000000000000000000000000000000000000000000000815260040160405180910390fd5b600060095403610a1c576040517f20e7f68d00000000000000000000000000000000000000000000000000000000815260040160405180910390fd5b60006040518060c001604052808981526020018881526020018781526020018681526020016002548152602001856008806020026040519081016040528092919082600860200280828437600081840152601f19601f8201169050808301925050505050508152509050600160009054906101000a900473ffffffffffffffffffffffffffffffffffffffff1673ffffffffffffffffffffffffffffffffffffffff1663d0d898dd600254836040518363ffffffff1660e01b8152600401610ae5929190612882565b600060405180830381600087803b158015610aff57600080fd5b505af1158015610b13573d6000803e3d6000fd5b50505050600080600e541115610c17576000600954600e54610b35919061290a565b90506000811115610c155780600e6000828254610b52919061293b565b925050819055508082610b65919061296f565b915060008573ffffffffffffffffffffffffffffffffffffffff1682604051610b8d906129d4565b60006040518083038185875af1925050503d8060008114610bca576040519150601f19603f3d011682016040523d82523d6000602084013e610bcf565b606091505b5050905080610c13576040517f08c379a0000000000000000000000000000000000000000000000000000000008152600401610c0a90612a46565b60405180910390fd5b505b505b60005b600a80549050811015610d45576000600a8281548110610c3d57610c3c612a66565b5b9060005260206000200160009054906101000a900473ffffffffffffffffffffffffffffffffffffffff1690506000600f60008373ffffffffffffffffffffffffffffffffffffffff1673ffffffffffffffffffffffffffffffffffffffff1681526020019081526020016000205490506000811115610d3657600060095482610cc7919061290a565b90506000811115610d345780600f60008573ffffffffffffffffffffffffffffffffffffffff1673ffffffffffffffffffffffffffffffffffffffff1681526020019081526020016000206000828254610d21919061293b565b92505081905550610d338389836120bb565b5b505b50508080600101915050610c1a565b5060096000815480929190610d5990612a95565b9190505550600060095403610f3d576000600e541115610e3b57600e5481610d81919061296f565b905060008473ffffffffffffffffffffffffffffffffffffffff16600e54604051610dab906129d4565b60006040518083038185875af1925050503d8060008114610de8576040519150601f19603f3d011682016040523d82523d6000602084013e610ded565b606091505b5050905080610e31576040517f08c379a0000000000000000000000000000000000000000000000000000000008152600401610e2890612b0a565b60405180910390fd5b6000600e81905550505b60005b600a80549050811015610f3b576000600a8281548110610e6157610e60612a66565b5b9060005260206000200160009054906101000a900473ffffffffffffffffffffffffffffffffffffffff1690506000600f60008373ffffffffffffffffffffffffffffffffffffffff1673ffffffffffffffffffffffffffffffffffffffff1681526020019081526020016000205490506000811115610f2c57610ee68288836120bb565b6000600f60008473ffffffffffffffffffffffffffffffffffffffff1673ffffffffffffffffffffffffffffffffffffffff168152602001908152602001600020819055505b50508080600101915050610e3e565b505b7f151efb0aa5abfe35d398c9082f5edc206e302b61247f0a3477d3ba963ccd34498760001b858389604051602001610f759190612421565b604051602081830303815290604052604051610f949493929190612bd3565b60405180910390a15050610fa661213a565b50505050505050565b60045481565b6000610fbf612144565b67ffffffffffffffff164201905063389a75e1600c5233600052806020600c2055337fdbf36a107da19e49527a7176a1babf963b4b0ff8cde35ee35d6cd8f1f9ac7e1d600080a250565b600d6020528060005260406000206000915090505481565b6060600a8054806020026020016040519081016040528092919081815260200182805480156110a557602002820191906000526020600020905b8160009054906101000a900473ffffffffffffffffffffffffffffffffffffffff1673ffffffffffffffffffffffffffffffffffffffff168152602001906001019080831161105b575b5050505050905090565b6110b761214f565b6000600654036110f3576040517f2899fdac00000000000000000000000000000000000000000000000000000000815260040160405180910390fd5b60065442111561112f576040517f864bc47300000000000000000000000000000000000000000000000000000000815260040160405180910390fd5b60006006819055506000600760006101000a81548160ff021916908315150217905550600060088190555060006009819055506000600c819055506000600e8190555060005b600a8054905081101561125d576000600a828154811061119857611197612a66565b5b9060005260206000200160009054906101000a900473ffffffffffffffffffffffffffffffffffffffff1690506000600d60008373ffffffffffffffffffffffffffffffffffffffff1673ffffffffffffffffffffffffffffffffffffffff168152602001908152602001600020819055506000600f60008373ffffffffffffffffffffffffffffffffffffffff1673ffffffffffffffffffffffffffffffffffffffff16815260200190815260200160002081905550508080600101915050611175565b506003544261126c919061296f565b6004819055507fecc892519f7c4956c9856734748829d5d5ecb718b419cb3397002585d3c005ea426040516112a19190612421565b60405180910390a17f89fa7599b0d9bfca448ea0eda6c061927c29af53b03bbf51b770ec8caf3f7e2d6004546040516112da9190612421565b60405180910390a1565b60095481565b600e5481565b600c5481565b60008060065414801561130b57506004544211155b905090565b60008060065414158015611325575060065442115b905090565b600a818154811061133a57600080fd5b906000526020600020016000915054906101000a900473ffffffffffffffffffffffffffffffffffffffff1681565b63389a75e1600c523360005260006020600c2055337ffa7b8eab7da67f412cc9575ed43464468f9bfbae89d1675917346ca6d8fe3c92600080a2565b60035481565b6113b361214f565b600073ffffffffffffffffffffffffffffffffffffffff168173ffffffffffffffffffffffffffffffffffffffff1603611419576040517fd92e233d00000000000000000000000000000000000000000000000000000000815260040160405180910390fd5b6000600160009054906101000a900473ffffffffffffffffffffffffffffffffffffffff16905081600160006101000a81548173ffffffffffffffffffffffffffffffffffffffff021916908373ffffffffffffffffffffffffffffffffffffffff1602179055508173ffffffffffffffffffffffffffffffffffffffff168173ffffffffffffffffffffffffffffffffffffffff167fb77796a245a97e66e69fa822f3139780cf4ea983fd046930d08673154424159260405160405180910390a35050565b6000600d60008373ffffffffffffffffffffffffffffffffffffffff1673ffffffffffffffffffffffffffffffffffffffff168152602001908152602001600020549050919050565b61153061214f565b61153a6000612187565b565b6000600a80549050905090565b600160009054906101000a900473ffffffffffffffffffffffffffffffffffffffff1681565b60055481565b61157d61214f565b6000600654141580611590575060045442115b156115c7576040517f10f3d9c900000000000000000000000000000000000000000000000000000000815260040160405180910390fd5b600354426115d5919061296f565b6004819055507f89fa7599b0d9bfca448ea0eda6c061927c29af53b03bbf51b770ec8caf3f7e2d60045460405161160c9190612421565b60405180910390a1565b60007fffffffffffffffffffffffffffffffffffffffffffffffffffffffff7487392754905090565b61164761214f565b600060065414158061165a575060045442115b15611691576040517f10f3d9c900000000000000000000000000000000000000000000000000000000815260040160405180910390fd5b600760009054906101000a900460ff16156116d8576040517f6f4d984900000000000000000000000000000000000000000000000000000000815260040160405180910390fd5b600073ffffffffffffffffffffffffffffffffffffffff168273ffffffffffffffffffffffffffffffffffffffff160361173e576040517fd92e233d00000000000000000000000000000000000000000000000000000000815260040160405180910390fd5b60008103611778576040517f2c5211c600000000000000000000000000000000000000000000000000000000815260040160405180910390fd5b600b60008373ffffffffffffffffffffffffffffffffffffffff1673ffffffffffffffffffffffffffffffffffffffff16815260200190815260200160002060009054906101000a900460ff16611885576001600b60008473ffffffffffffffffffffffffffffffffffffffff1673ffffffffffffffffffffffffffffffffffffffff16815260200190815260200160002060006101000a81548160ff021916908315150217905550600a829080600181540180825580915050600190039060005260206000200160009091909190916101000a81548173ffffffffffffffffffffffffffffffffffffffff021916908373ffffffffffffffffffffffffffffffffffffffff1602179055505b6118918233308461224f565b8173ffffffffffffffffffffffffffffffffffffffff167fab79632de7fe1724598ce2214eaa326d90d48064d2d3397406ecc5769316a5f6826040516118d79190612421565b60405180910390a25050565b600080600654141580156118f957506006544211155b905090565b61190661214f565b6000600654141580611919575060045442115b15611950576040517f10f3d9c900000000000000000000000000000000000000000000000000000000815260040160405180910390fd5b600060025490508160028190555081817f6e7dd825a86782539ff2639bbdf0ef7cea96f10e05d6594e6069cb805384508660405160405180910390a35050565b60025481565b600b6020528060005260406000206000915054906101000a900460ff1681565b600f6020528060005260406000206000915090505481565b6000806006541415905090565b60085481565b6000600a805490508210611a2a576040517f08c379a0000000000000000000000000000000000000000000000000000000008152600401611a2190612c6b565b60405180910390fd5b600a8281548110611a3e57611a3d612a66565b5b9060005260206000200160009054906101000a900473ffffffffffffffffffffffffffffffffffffffff169050919050565b60065481565b611a7e61214f565b63389a75e1600c52806000526020600c208054421115611aa657636f5e88186000526004601cfd5b6000815550611ab481612187565b50565b611abf61214f565b8060601b611ad557637448fbae6000526004601cfd5b611ade81612187565b50565b611ae961214f565b6000600654141580611afc575060045442115b15611b33576040517f10f3d9c900000000000000000000000000000000000000000000000000000000815260040160405180910390fd5b600760009054906101000a900460ff1615611b7a576040517f6f4d984900000000000000000000000000000000000000000000000000000000815260040160405180910390fd5b60003403611bb4576040517f2c5211c600000000000000000000000000000000000000000000000000000000815260040160405180910390fd5b7fadb6a3fe015de6cf14b532348b91a6202eb862af051124a853b5935e034cfd7b34604051611be39190612421565b60405180910390a1565b6004544211611c28576040517fbe948d0600000000000000000000000000000000000000000000000000000000815260040160405180910390fd5b600060065414611c64576040517fc295d67c00000000000000000000000000000000000000000000000000000000815260040160405180910390fd5b6000600160009054906101000a900473ffffffffffffffffffffffffffffffffffffffff1673ffffffffffffffffffffffffffffffffffffffff16637ee35a0c6002546040518263ffffffff1660e01b8152600401611cc39190612421565b602060405180830381865afa158015611ce0573d6000803e3d6000fd5b505050506040513d601f19601f82011682018060405250810190611d049190612ca0565b905060008103611d40576040517f674f4a7700000000000000000000000000000000000000000000000000000000815260040160405180910390fd5b6001600760006101000a81548160ff021916908315150217905550806008819055508060098190555047600c81905550600c54600e8190555060005b600a80549050811015611ee1576000600a8281548110611d9f57611d9e612a66565b5b9060005260206000200160009054906101000a900473ffffffffffffffffffffffffffffffffffffffff16905060008173ffffffffffffffffffffffffffffffffffffffff166370a08231306040518263ffffffff1660e01b8152600401611e079190612686565b602060405180830381865afa158015611e24573d6000803e3d6000fd5b505050506040513d601f19601f82011682018060405250810190611e489190612ca0565b905080600d60008473ffffffffffffffffffffffffffffffffffffffff1673ffffffffffffffffffffffffffffffffffffffff1681526020019081526020016000208190555080600f60008473ffffffffffffffffffffffffffffffffffffffff1673ffffffffffffffffffffffffffffffffffffffff1681526020019081526020016000208190555050508080600101915050611d7c565b5060055442611ef0919061296f565b6006819055507fb41ae2fb12ce02c935f64f50af8d2a997c0aea3342f9655697cc3125b4ea80ea600854600c54600a604051611f2e93929190612db9565b60405180910390a17f06864d945a6410f13c725c139ecfd7514745a01d043c9fbf499d75d605067cad42600654604051611f69929190612df7565b60405180910390a150565b600063389a75e1600c52816000526020600c20549050919050565b611f9761214f565b6000600654141580611faa575060045442115b15611fe1576040517f10f3d9c900000000000000000000000000000000000000000000000000000000815260040160405180910390fd5b600160009054906101000a900473ffffffffffffffffffffffffffffffffffffffff1673ffffffffffffffffffffffffffffffffffffffff16631783efc3600254836040518363ffffffff1660e01b8152600401612040929190612df7565b600060405180830381600087803b15801561205a57600080fd5b505af115801561206e573d6000803e3d6000fd5b5050505050565b6002600054036120b1576040517f3ee5aeb500000000000000000000000000000000000000000000000000000000815260040160405180910390fd5b6002600081905550565b612135838473ffffffffffffffffffffffffffffffffffffffff1663a9059cbb85856040516024016120ee929190612e20565b604051602081830303815290604052915060e01b6020820180517bffffffffffffffffffffffffffffffffffffffffffffffffffffffff83818316178352505050506122d1565b505050565b6001600081905550565b60006202a300905090565b7fffffffffffffffffffffffffffffffffffffffffffffffffffffffff74873927543314612185576382b429006000526004601cfd5b565b61218f612373565b156121f5577fffffffffffffffffffffffffffffffffffffffffffffffffffffffff748739278160601b60601c91508181547f8be0079c531659141344cd1fd0a4f28419497f9722a3daafe3b4186f6b6457e0600080a3811560ff1b821781555061224c565b7fffffffffffffffffffffffffffffffffffffffffffffffffffffffff748739278160601b60601c91508181547f8be0079c531659141344cd1fd0a4f28419497f9722a3daafe3b4186f6b6457e0600080a3818155505b50565b6122cb848573ffffffffffffffffffffffffffffffffffffffff166323b872dd86868660405160240161228493929190612e49565b604051602081830303815290604052915060e01b6020820180517bffffffffffffffffffffffffffffffffffffffffffffffffffffffff83818316178352505050506122d1565b50505050565b600080602060008451602086016000885af1806122f4576040513d6000823e3d81fd5b3d92506000519150506000821461230f57600181141561232b565b60008473ffffffffffffffffffffffffffffffffffffffff163b145b1561236d57836040517f5274afe70000000000000000000000000000000000000000000000000000000081526004016123649190612686565b60405180910390fd5b50505050565b600090565b600080fd5b600073ffffffffffffffffffffffffffffffffffffffff82169050919050565b60006123a88261237d565b9050919050565b6123b88161239d565b81146123c357600080fd5b50565b6000813590506123d5816123af565b92915050565b6000602082840312156123f1576123f0612378565b5b60006123ff848285016123c6565b91505092915050565b6000819050919050565b61241b81612408565b82525050565b60006020820190506124366000830184612412565b92915050565b60008115159050919050565b6124518161243c565b82525050565b600060208201905061246c6000830184612448565b92915050565b61247b81612408565b811461248657600080fd5b50565b60008135905061249881612472565b92915050565b600080fd5b6000819050826020600802820111156124bf576124be61249e565b5b92915050565b60008060008060008060006101c0888a0312156124e5576124e4612378565b5b60006124f38a828b01612489565b97505060206125048a828b01612489565b96505060406125158a828b01612489565b95505060606125268a828b01612489565b94505060806125378a828b016124a3565b9350506101806125498a828b016123c6565b9250506101a061255b8a828b01612489565b91505092959891949750929550565b600081519050919050565b600082825260208201905092915050565b6000819050602082019050919050565b61259f8161239d565b82525050565b60006125b18383612596565b60208301905092915050565b6000602082019050919050565b60006125d58261256a565b6125df8185612575565b93506125ea83612586565b8060005b8381101561261b57815161260288826125a5565b975061260d836125bd565b9250506001810190506125ee565b5085935050505092915050565b6000602082019050818103600083015261264281846125ca565b905092915050565b6000602082840312156126605761265f612378565b5b600061266e84828501612489565b91505092915050565b6126808161239d565b82525050565b600060208201905061269b6000830184612677565b92915050565b6000819050919050565b60006126c66126c16126bc8461237d565b6126a1565b61237d565b9050919050565b60006126d8826126ab565b9050919050565b60006126ea826126cd565b9050919050565b6126fa816126df565b82525050565b600060208201905061271560008301846126f1565b92915050565b6000806040838503121561273257612731612378565b5b6000612740858286016123c6565b925050602061275185828601612489565b9150509250929050565b61276481612408565b82525050565b600060089050919050565b600081905092915050565b6000819050919050565b6000612796838361275b565b60208301905092915050565b6000602082019050919050565b6127b88161276a565b6127c28184612775565b92506127cd82612780565b8060005b838110156127fe5781516127e5878261278a565b96506127f0836127a2565b9250506001810190506127d1565b505050505050565b6101a08201600082015161281d600085018261275b565b506020820151612830602085018261275b565b506040820151612843604085018261275b565b506060820151612856606085018261275b565b506080820151612869608085018261275b565b5060a082015161287c60a08501826127af565b50505050565b60006101c0820190506128986000830185612412565b6128a56020830184612806565b9392505050565b7f4e487b7100000000000000000000000000000000000000000000000000000000600052601260045260246000fd5b7f4e487b7100000000000000000000000000000000000000000000000000000000600052601160045260246000fd5b600061291582612408565b915061292083612408565b9250826129305761292f6128ac565b5b828204905092915050565b600061294682612408565b915061295183612408565b9250828203905081811115612969576129686128db565b5b92915050565b600061297a82612408565b915061298583612408565b925082820190508082111561299d5761299c6128db565b5b92915050565b600081905092915050565b50565b60006129be6000836129a3565b91506129c9826129ae565b600082019050919050565b60006129df826129b1565b9150819050919050565b600082825260208201905092915050565b7f455448207472616e73666572206661696c656400000000000000000000000000600082015250565b6000612a306013836129e9565b9150612a3b826129fa565b602082019050919050565b60006020820190508181036000830152612a5f81612a23565b9050919050565b7f4e487b7100000000000000000000000000000000000000000000000000000000600052603260045260246000fd5b6000612aa082612408565b915060008203612ab357612ab26128db565b5b600182039050919050565b7f4554482064757374207472616e73666572206661696c65640000000000000000600082015250565b6000612af46018836129e9565b9150612aff82612abe565b602082019050919050565b60006020820190508181036000830152612b2381612ae7565b9050919050565b6000819050919050565b612b3d81612b2a565b82525050565b600081519050919050565b600082825260208201905092915050565b60005b83811015612b7d578082015181840152602081019050612b62565b60008484015250505050565b6000601f19601f8301169050919050565b6000612ba582612b43565b612baf8185612b4e565b9350612bbf818560208601612b5f565b612bc881612b89565b840191505092915050565b6000608082019050612be86000830187612b34565b612bf56020830186612677565b612c026040830185612412565b8181036060830152612c148184612b9a565b905095945050505050565b7f496e646578206f7574206f6620626f756e647300000000000000000000000000600082015250565b6000612c556013836129e9565b9150612c6082612c1f565b602082019050919050565b60006020820190508181036000830152612c8481612c48565b9050919050565b600081519050612c9a81612472565b92915050565b600060208284031215612cb657612cb5612378565b5b6000612cc484828501612c8b565b91505092915050565b600081549050919050565b60008190508160005260206000209050919050565b60008160001c9050919050565b600073ffffffffffffffffffffffffffffffffffffffff82169050919050565b6000612d2d612d2883612ced565b612cfa565b9050919050565b6000612d408254612d1a565b9050919050565b6000600182019050919050565b6000612d5f82612ccd565b612d698185612575565b9350612d7483612cd8565b8060005b83811015612dac57612d8982612d34565b612d9388826125a5565b9750612d9e83612d47565b925050600181019050612d78565b5085935050505092915050565b6000606082019050612dce6000830186612412565b612ddb6020830185612412565b8181036040830152612ded8184612d54565b9050949350505050565b6000604082019050612e0c6000830185612412565b612e196020830184612412565b9392505050565b6000604082019050612e356000830185612677565b612e426020830184612412565b9392505050565b6000606082019050612e5e6000830186612677565b612e6b6020830185612677565b612e786040830184612412565b94935050505056fea2646970667358221220046b40a7a250a3c33dd5dc02b231c96a52bd5934a38e73c31f811cd112b255fd64736f6c63430008170033",
  "linkReferences": {},
  "deployedLinkReferences": {}
}