{
  "_format": "hh-sol-artifact-1",
  "contractName": "InheritanceVault",
  "sourceName": "contracts/InheritanceVault.sol",
  "abi": [
    {
      "inputs": [
        {
          "internalType": "address",
          "name": "semaphoreAddress",
          "type": "address"
        },
        {
          "internalType": "uint256",
          "name": "_heartbeatInterval",
          "type": "uint256"
        },
        {
          "internalType": "uint256",
          "name": "_challengeWindow",
          "type": "uint256"
        }
      ],
      "stateMutability": "nonpayable",
      "type": "constructor"
    },
    {
      "inputs": [],
      "name": "AllHeirsClaimed",
      "type": "error"
    },
    {
      "inputs": [],
      "name": "ChallengeWindowOver",
      "type": "error"
    },
    {
      "inputs": [],
      "name": "ClaimNotOpen",
      "type": "error"
    },
    {
      "inputs": [],
      "name": "DepositsFrozen",
      "type": "error"
    },
    {
      "inputs": [],
      "name": "Expired",
      "type": "error"
    },
    {
      "inputs": [],
      "name": "ExpiryAlreadyStarted",
      "type": "error"
    },
    {
      "inputs": [],
      "name": "ExpiryNotStarted",
      "type": "error"
    },
    {
      "inputs": [],
      "name": "InvalidAmount",
      "type": "error"
    },
    {
      "inputs": [],
      "name": "InvalidParams",
      "type": "error"
    },
    {
      "inputs": [],
      "name": "InvalidProof",
      "type": "error"
    },
    {
      "inputs": [],
      "name": "NoHeirs",
      "type": "error"
    },
    {
      "inputs": [],
      "name": "NotAlive",
      "type": "error"
    },
    {
      "inputs": [],
      "name": "NotInChallengeWindow",
      "type": "error"
    },
    {
      "inputs": [
        {
          "internalType": "address",
          "name": "owner",
          "type": "address"
        }
      ],
      "name": "OwnableInvalidOwner",
      "type": "error"
    },
    {
      "inputs": [
        {
          "internalType": "address",
          "name": "account",
          "type": "address"
        }
      ],
      "name": "OwnableUnauthorizedAccount",
      "type": "error"
    },
    {
      "inputs": [],
      "name": "ReentrancyGuardReentrantCall",
      "type": "error"
    },
    {
      "inputs": [
        {
          "internalType": "address",
          "name": "token",
          "type": "address"
        }
      ],
      "name": "SafeERC20FailedOperation",
      "type": "error"
    },
    {
      "inputs": [],
      "name": "StillAlive",
      "type": "error"
    },
    {
      "inputs": [],
      "name": "ZeroAddress",
      "type": "error"
    },
    {
      "anonymous": false,
      "inputs": [
        {
          "indexed": false,
          "internalType": "bytes32",
          "name": "nullifierHash",
          "type": "bytes32"
        },
        {
          "indexed": false,
          "internalType": "address",
          "name": "to",
          "type": "address"
        },
        {
          "indexed": false,
          "internalType": "uint256",
          "name": "amount",
          "type": "uint256"
        },
        {
          "indexed": false,
          "internalType": "bytes",
          "name": "signal",
          "type": "bytes"
        }
      ],
      "name": "Claimed",
      "type": "event"
    },
    {
      "anonymous": false,
      "inputs": [
        {
          "indexed": true,
          "internalType": "address",
          "name": "token",
          "type": "address"
        },
        {
          "indexed": false,
          "internalType": "uint256",
          "name": "amount",
          "type": "uint256"
        }
      ],
      "name": "ERC20Deposited",
      "type": "event"
    },
    {
      "anonymous": false,
      "inputs": [
        {
          "indexed": false,
          "internalType": "uint256",
          "name": "amount",
          "type": "uint256"
        }
      ],
      "name": "ETHDeposited",
      "type": "event"
    },
    {
      "anonymous": false,
      "inputs": [
        {
          "indexed": false,
          "internalType": "uint256",
          "name": "at",
          "type": "uint256"
        }
      ],
      "name": "ExpiryRevoked",
      "type": "event"
    },
    {
      "anonymous": false,
      "inputs": [
        {
          "indexed": false,
          "internalType": "uint256",
          "name": "at",
          "type": "uint256"
        },
        {
          "indexed": false,
          "internalType": "uint256",
          "name": "challengeWindowEnd",
          "type": "uint256"
        }
      ],
      "name": "ExpiryStarted",
      "type": "event"
    },
    {
      "anonymous": false,
      "inputs": [
        {
          "indexed": true,
          "internalType": "uint256",
          "name": "oldGroupId",
          "type": "uint256"
        },
        {
          "indexed": true,
          "internalType": "uint256",
          "name": "newGroupId",
          "type": "uint256"
        }
      ],
      "name": "GroupIdUpdated",
      "type": "event"
    },
    {
      "anonymous": false,
      "inputs": [
        {
          "indexed": false,
          "internalType": "uint256",
          "name": "nextDeadline",
          "type": "uint256"
        }
      ],
      "name": "Heartbeat",
      "type": "event"
    },
    {
      "anonymous": false,
      "inputs": [
        {
          "indexed": true,
          "internalType": "address",
          "name": "previousOwner",
          "type": "address"
        },
        {
          "indexed": true,
          "internalType": "address",
          "name": "newOwner",
          "type": "address"
        }
      ],
      "name": "OwnershipTransferred",
      "type": "event"
    },
    {
      "anonymous": false,
      "inputs": [
        {
          "indexed": true,
          "internalType": "address",
          "name": "oldSemaphore",
          "type": "address"
        },
        {
          "indexed": true,
          "internalType": "address",
          "name": "newSemaphore",
          "type": "address"
        }
      ],
      "name": "SemaphoreUpdated",
      "type": "event"
    },
    {
      "anonymous": false,
      "inputs": [
        {
          "indexed": false,
          "internalType": "uint256",
          "name": "heirsTotal",
          "type": "uint256"
        },
        {
          "indexed": false,
          "internalType": "uint256",
          "name": "ethAmount",
          "type": "uint256"
        },
        {
          "indexed": false,
          "internalType": "address[]",
          "name": "tokens",
          "type": "address[]"
        }
      ],
      "name": "SnapshotTaken",
      "type": "event"
    },
    {
      "inputs": [
        {
          "internalType": "uint256",
          "name": "identityCommitment",
          "type": "uint256"
        }
      ],
      "name": "addHeir",
      "outputs": [],
      "stateMutability": "nonpayable",
      "type": "function"
    },
    {
      "inputs": [],
      "name": "challengeWindow",
      "outputs": [
        {
          "internalType": "uint256",
          "name": "",
          "type": "uint256"
        }
      ],
      "stateMutability": "view",
      "type": "function"
    },
    {
      "inputs": [],
      "name": "challengeWindowEnd",
      "outputs": [
        {
          "internalType": "uint256",
          "name": "",
          "type": "uint256"
        }
      ],
      "stateMutability": "view",
      "type": "function"
    },
    {
      "inputs": [
        {
          "internalType": "uint256",
          "name": "merkleTreeDepth",
          "type": "uint256"
        },
        {
          "internalType": "uint256",
          "name": "merkleTreeRoot",
          "type": "uint256"
        },
        {
          "internalType": "uint256",
          "name": "nullifier",
          "type": "uint256"
        },
        {
          "internalType": "uint256",
          "name": "signal",
          "type": "uint256"
        },
        {
          "internalType": "uint256[8]",
          "name": "points",
          "type": "uint256[8]"
        },
        {
          "internalType": "address",
          "name": "to",
          "type": "address"
        },
        {
          "internalType": "uint256",
          "name": "amount",
          "type": "uint256"
        }
      ],
      "name": "claim",
      "outputs": [],
      "stateMutability": "nonpayable",
      "type": "function"
    },
    {
      "inputs": [],
      "name": "claimOpen",
      "outputs": [
        {
          "internalType": "bool",
          "name": "",
          "type": "bool"
        }
      ],
      "stateMutability": "view",
      "type": "function"
    },
    {
      "inputs": [
        {
          "internalType": "address",
          "name": "token",
          "type": "address"
        },
        {
          "internalType": "uint256",
          "name": "amount",
          "type": "uint256"
        }
      ],
      "name": "depositERC20",
      "outputs": [],
      "stateMutability": "nonpayable",
      "type": "function"
    },
    {
      "inputs": [],
      "name": "depositETH",
      "outputs": [],
      "stateMutability": "payable",
      "type": "function"
    },
    {
      "inputs": [],
      "name": "frozen",
      "outputs": [
        {
          "internalType": "bool",
          "name": "",
          "type": "bool"
        }
      ],
      "stateMutability": "view",
      "type": "function"
    },
    {
      "inputs": [],
      "name": "getAllTokens",
      "outputs": [
        {
          "internalType": "address[]",
          "name": "",
          "type": "address[]"
        }
      ],
      "stateMutability": "view",
      "type": "function"
    },
    {
      "inputs": [
        {
          "internalType": "address",
          "name": "token",
          "type": "address"
        }
      ],
      "name": "getRemainingBalance",
      "outputs": [
        {
          "internalType": "uint256",
          "name": "",
          "type": "uint256"
        }
      ],
      "stateMutability": "view",
      "type": "function"
    },
    {
      "inputs": [
        {
          "internalType": "address",
          "name": "token",
          "type": "address"
        }
      ],
      "name": "getSnapshotBalance",
      "outputs": [
        {
          "internalType": "uint256",
          "name": "",
          "type": "uint256"
        }
      ],
      "stateMutability": "view",
      "type": "function"
    },
    {
      "inputs": [
        {
          "internalType": "uint256",
          "name": "index",
          "type": "uint256"
        }
      ],
      "name": "getToken",
      "outputs": [
        {
          "internalType": "address",
          "name": "",
          "type": "address"
        }
      ],
      "stateMutability": "view",
      "type": "function"
    },
    {
      "inputs": [],
      "name": "getTokenCount",
      "outputs": [
        {
          "internalType": "uint256",
          "name": "",
          "type": "uint256"
        }
      ],
      "stateMutability": "view",
      "type": "function"
    },
    {
      "inputs": [],
      "name": "groupId",
      "outputs": [
        {
          "internalType": "uint256",
          "name": "",
          "type": "uint256"
        }
      ],
      "stateMutability": "view",
      "type": "function"
    },
    {
      "inputs": [],
      "name": "heartbeatInterval",
      "outputs": [
        {
          "internalType": "uint256",
          "name": "",
          "type": "uint256"
        }
      ],
      "stateMutability": "view",
      "type": "function"
    },
    {
      "inputs": [],
      "name": "heirsRemaining",
      "outputs": [
        {
          "internalType": "uint256",
          "name": "",
          "type": "uint256"
        }
      ],
      "stateMutability": "view",
      "type": "function"
    },
    {
      "inputs": [],
      "name": "heirsTotal",
      "outputs": [
        {
          "internalType": "uint256",
          "name": "",
          "type": "uint256"
        }
      ],
      "stateMutability": "view",
      "type": "function"
    },
    {
      "inputs": [],
      "name": "inChallengeWindow",
      "outputs": [
        {
          "internalType": "bool",
          "name": "",
          "type": "bool"
        }
      ],
      "stateMutability": "view",
      "type": "function"
    },
    {
      "inputs": [],
      "name": "inExpiry",
      "outputs": [
        {
          "internalType": "bool",
          "name": "",
          "type": "bool"
        }
      ],
      "stateMutability": "view",
      "type": "function"
    },
    {
      "inputs": [],
      "name": "isAlive",
      "outputs": [
        {
          "internalType": "bool",
          "name": "",
          "type": "bool"
        }
      ],
      "stateMutability": "view",
      "type": "function"
    },
    {
      "inputs": [],
      "name": "keepAlive",
      "outputs": [],
      "stateMutability": "nonpayable",
      "type": "function"
    },
    {
      "inputs": [
        {
          "internalType": "address",
          "name": "",
          "type": "address"
        }
      ],
      "name": "knownToken",
      "outputs": [
        {
          "internalType": "bool",
          "name": "",
          "type": "bool"
        }
      ],
      "stateMutability": "view",
      "type": "function"
    },
    {
      "inputs": [],
      "name": "nextDeadline",
      "outputs": [
        {
          "internalType": "uint256",
          "name": "",
          "type": "uint256"
        }
      ],
      "stateMutability": "view",
      "type": "function"
    },
    {
      "inputs": [],
      "name": "owner",
      "outputs": [
        {
          "internalType": "address",
          "name": "",
          "type": "address"
        }
      ],
      "stateMutability": "view",
      "type": "function"
    },
    {
      "inputs": [
        {
          "internalType": "address",
          "name": "",
          "type": "address"
        }
      ],
      "name": "remaining",
      "outputs": [
        {
          "internalType": "uint256",
          "name": "",
          "type": "uint256"
        }
      ],
      "stateMutability": "view",
      "type": "function"
    },
    {
      "inputs": [],
      "name": "remainingETH",
      "outputs": [
        {
          "internalType": "uint256",
          "name": "",
          "type": "uint256"
        }
      ],
      "stateMutability": "view",
      "type": "function"
    },
    {
      "inputs": [],
      "name": "renounceOwnership",
      "outputs": [],
      "stateMutability": "nonpayable",
      "type": "function"
    },
    {
      "inputs": [],
      "name": "revokeExpiry",
      "outputs": [],
      "stateMutability": "nonpayable",
      "type": "function"
    },
    {
      "inputs": [],
      "name": "semaphore",
      "outputs": [
        {
          "internalType": "contract ISemaphore",
          "name": "",
          "type": "address"
        }
      ],
      "stateMutability": "view",
      "type": "function"
    },
    {
      "inputs": [
        {
          "internalType": "uint256",
          "name": "newGroupId",
          "type": "uint256"
        }
      ],
      "name": "setGroupId",
      "outputs": [],
      "stateMutability": "nonpayable",
      "type": "function"
    },
    {
      "inputs": [
        {
          "internalType": "address",
          "name": "newSemaphore",
          "type": "address"
        }
      ],
      "name": "setSemaphore",
      "outputs": [],
      "stateMutability": "nonpayable",
      "type": "function"
    },
    {
      "inputs": [
        {
          "internalType": "address",
          "name": "",
          "type": "address"
        }
      ],
      "name": "snapshot",
      "outputs": [
        {
          "internalType": "uint256",
          "name": "",
          "type": "uint256"
        }
      ],
      "stateMutability": "view",
      "type": "function"
    },
    {
      "inputs": [],
      "name": "snapshotETH",
      "outputs": [
        {
          "internalType": "uint256",
          "name": "",
          "type": "uint256"
        }
      ],
      "stateMutability": "view",
      "type": "function"
    },
    {
      "inputs": [],
      "name": "startExpiry",
      "outputs": [],
      "stateMutability": "nonpayable",
      "type": "function"
    },
    {
      "inputs": [
        {
          "internalType": "uint256",
          "name": "",
          "type": "uint256"
        }
      ],
      "name": "tokens",
      "outputs": [
        {
          "internalType": "address",
          "name": "",
          "type": "address"
        }
      ],
      "stateMutability": "view",
      "type": "function"
    },
    {
      "inputs": [
        {
          "internalType": "address",
          "name": "newOwner",
          "type": "address"
        }
      ],
      "name": "transferOwnership",
      "outputs": [],
      "stateMutability": "nonpayable",
      "type": "function"
    }
  ],
  "bytecode": "0x60806040523480156200001157600080fd5b50604051620033ac380380620033ac83398181016040528101906200003791906200045f565b33600073ffffffffffffffffffffffffffffffffffffffff168173ffffffffffffffffffffffffffffffffffffffff1603620000ad5760006040517f1e4fbdf7000000000000000000000000000000000000000000000000000000008152600401620000a49190620004cc565b60405180910390fd5b620000be81620002f660201b60201c565b5060018081905550600073ffffffffffffffffffffffffffffffffffffffff168373ffffffffffffffffffffffffffffffffffffffff16036200012d576040517fd92e233d00000000000000000000000000000000000000000000000000000000815260040160405180910390fd5b60008214806200013d5750600081145b1562000175576040517fa86b651200000000000000000000000000000000000000000000000000000000815260040160405180910390fd5b82600260006101000a81548173ffffffffffffffffffffffffffffffffffffffff021916908373ffffffffffffffffffffffffffffffffffffffff16021790555081600481905550806006819055508142620001d2919062000518565b600581905550600260009054906101000a900473ffffffffffffffffffffffffffffffffffffffff1673ffffffffffffffffffffffffffffffffffffffff16635c3f3b60306040518263ffffffff1660e01b8152600401620002359190620004cc565b6020604051808303816000875af115801562000255573d6000803e3d6000fd5b505050506040513d601f19601f820116820180604052508101906200027b919062000553565b60038190555060035460007f6e7dd825a86782539ff2639bbdf0ef7cea96f10e05d6594e6069cb805384508660405160405180910390a37f89fa7599b0d9bfca448ea0eda6c061927c29af53b03bbf51b770ec8caf3f7e2d600554604051620002e5919062000596565b60405180910390a1505050620005b3565b60008060009054906101000a900473ffffffffffffffffffffffffffffffffffffffff169050816000806101000a81548173ffffffffffffffffffffffffffffffffffffffff021916908373ffffffffffffffffffffffffffffffffffffffff1602179055508173ffffffffffffffffffffffffffffffffffffffff168173ffffffffffffffffffffffffffffffffffffffff167f8be0079c531659141344cd1fd0a4f28419497f9722a3daafe3b4186f6b6457e060405160405180910390a35050565b600080fd5b600073ffffffffffffffffffffffffffffffffffffffff82169050919050565b6000620003ec82620003bf565b9050919050565b620003fe81620003df565b81146200040a57600080fd5b50565b6000815190506200041e81620003f3565b92915050565b6000819050919050565b620004398162000424565b81146200044557600080fd5b50565b60008151905062000459816200042e565b92915050565b6000806000606084860312156200047b576200047a620003ba565b5b60006200048b868287016200040d565b93505060206200049e8682870162000448565b9250506040620004b18682870162000448565b9150509250925092565b620004c681620003df565b82525050565b6000602082019050620004e36000830184620004bb565b92915050565b7f4e487b7100000000000000000000000000000000000000000000000000000000600052601160045260246000fd5b6000620005258262000424565b9150620005328362000424565b92508282019050808211156200054d576200054c620004e9565b5b92915050565b6000602082840312156200056c576200056b620003ba565b5b60006200057c8482850162000448565b91505092915050565b620005908162000424565b82525050565b6000602082019050620005ad600083018462000585565b92915050565b612de980620005c36000396000f3fe60806040526004361061020e5760003560e01c80637b5d253411610118578063b399b0bc116100a0578063ee1c28b81161006f578063ee1c28b814610782578063f2fde38b146107ad578063f6326fb3146107d6578063f79f5245146107e0578063ffa28fa9146107f75761020e565b8063b399b0bc146106b2578063c627ae5f146106ef578063e16dce831461071a578063e4b50cb8146107455761020e565b806397feb926116100e757806397feb926146105cd5780639b06a642146105f6578063a0191fd214610621578063a0f44c921461064a578063ade535b7146106755761020e565b80637b5d253414610535578063861a14121461056057806387740c0d1461058b5780638da5cb5b146105a25761020e565b80633f40e0141161019b578063561a4fac1161016a578063561a4fac146104625780635a58de2f1461048d578063646b45b7146104b6578063715018a6146104f357806378a895671461050a5761020e565b80633f40e014146103a45780634136aa35146103cf5780634b8bcb58146103fa5780634f64b2be146104255761020e565b806326512160116101e257806326512160146102cf5780632a5c792a1461030c5780632a642bfe146103375780632b8afe6e1461034e5780632c7acf8c146103795761020e565b80621bf8f614610213578063054f7d9c146102505780630b14486a1461027b57806320517984146102a4575b600080fd5b34801561021f57600080fd5b5061023a6004803603810190610235919061230e565b610820565b6040516102479190612354565b60405180910390f35b34801561025c57600080fd5b50610265610869565b604051610272919061238a565b60405180910390f35b34801561028757600080fd5b506102a2600480360381019061029d91906123f8565b61087c565b005b3480156102b057600080fd5b506102b9610f30565b6040516102c69190612354565b60405180910390f35b3480156102db57600080fd5b506102f660048036038101906102f1919061230e565b610f36565b6040516103039190612354565b60405180910390f35b34801561031857600080fd5b50610321610f4e565b60405161032e919061255b565b60405180910390f35b34801561034357600080fd5b5061034c610fdc565b005b34801561035a57600080fd5b50610363611211565b6040516103709190612354565b60405180910390f35b34801561038557600080fd5b5061038e611217565b60405161039b9190612354565b60405180910390f35b3480156103b057600080fd5b506103b961121d565b6040516103c69190612354565b60405180910390f35b3480156103db57600080fd5b506103e4611223565b6040516103f1919061238a565b60405180910390f35b34801561040657600080fd5b5061040f61123d565b60405161041c919061238a565b60405180910390f35b34801561043157600080fd5b5061044c6004803603810190610447919061257d565b611257565b60405161045991906125b9565b60405180910390f35b34801561046e57600080fd5b50610477611296565b6040516104849190612354565b60405180910390f35b34801561049957600080fd5b506104b460048036038101906104af919061230e565b61129c565b005b3480156104c257600080fd5b506104dd60048036038101906104d8919061230e565b6113d0565b6040516104ea9190612354565b60405180910390f35b3480156104ff57600080fd5b50610508611419565b005b34801561051657600080fd5b5061051f61142d565b60405161052c9190612354565b60405180910390f35b34801561054157600080fd5b5061054a61143a565b6040516105579190612633565b60405180910390f35b34801561056c57600080fd5b50610575611460565b6040516105829190612354565b60405180910390f35b34801561059757600080fd5b506105a0611466565b005b3480156105ae57600080fd5b506105b7611507565b6040516105c491906125b9565b60405180910390f35b3480156105d957600080fd5b506105f460048036038101906105ef919061264e565b611530565b005b34801561060257600080fd5b5061060b6117d4565b604051610618919061238a565b60405180910390f35b34801561062d57600080fd5b506106486004803603810190610643919061257d565b6117ef565b005b34801561065657600080fd5b5061065f611881565b60405161066c9190612354565b60405180910390f35b34801561068157600080fd5b5061069c6004803603810190610697919061230e565b611887565b6040516106a9919061238a565b60405180910390f35b3480156106be57600080fd5b506106d960048036038101906106d4919061230e565b6118a7565b6040516106e69190612354565b60405180910390f35b3480156106fb57600080fd5b506107046118bf565b604051610711919061238a565b60405180910390f35b34801561072657600080fd5b5061072f6118cc565b60405161073c9190612354565b60405180910390f35b34801561075157600080fd5b5061076c6004803603810190610767919061257d565b6118d2565b60405161077991906125b9565b60405180910390f35b34801561078e57600080fd5b50610797611961565b6040516107a49190612354565b60405180910390f35b3480156107b957600080fd5b506107d460048036038101906107cf919061230e565b611967565b005b6107de6119ed565b005b3480156107ec57600080fd5b506107f5611af9565b005b34801561080357600080fd5b5061081e6004803603810190610819919061257d565b611e80565b005b6000601060008373ffffffffffffffffffffffffffffffffffffffff1673ffffffffffffffffffffffffffffffffffffffff168152602001908152602001600020549050919050565b600860009054906101000a900460ff1681565b610884611f66565b6000600754036108c0576040517f2899fdac00000000000000000000000000000000000000000000000000000000815260040160405180910390fd5b60075442116108fb576040517f6b68780600000000000000000000000000000000000000000000000000000000815260040160405180910390fd5b600073ffffffffffffffffffffffffffffffffffffffff168273ffffffffffffffffffffffffffffffffffffffff1603610961576040517fd92e233d00000000000000000000000000000000000000000000000000000000815260040160405180910390fd5b6000600a540361099d576040517f20e7f68d00000000000000000000000000000000000000000000000000000000815260040160405180910390fd5b60006040518060c001604052808981526020018881526020018781526020018681526020016003548152602001856008806020026040519081016040528092919082600860200280828437600081840152601f19601f8201169050808301925050505050508152509050600260009054906101000a900473ffffffffffffffffffffffffffffffffffffffff1673ffffffffffffffffffffffffffffffffffffffff1663d0d898dd600354836040518363ffffffff1660e01b8152600401610a669291906127b5565b600060405180830381600087803b158015610a8057600080fd5b505af1158015610a94573d6000803e3d6000fd5b50505050600080600f541115610b98576000600a54600f54610ab6919061283d565b90506000811115610b965780600f6000828254610ad3919061286e565b925050819055508082610ae691906128a2565b915060008573ffffffffffffffffffffffffffffffffffffffff1682604051610b0e90612907565b60006040518083038185875af1925050503d8060008114610b4b576040519150601f19603f3d011682016040523d82523d6000602084013e610b50565b606091505b5050905080610b94576040517f08c379a0000000000000000000000000000000000000000000000000000000008152600401610b8b90612979565b60405180910390fd5b505b505b60005b600b80549050811015610cc6576000600b8281548110610bbe57610bbd612999565b5b9060005260206000200160009054906101000a900473ffffffffffffffffffffffffffffffffffffffff1690506000601060008373ffffffffffffffffffffffffffffffffffffffff1673ffffffffffffffffffffffffffffffffffffffff1681526020019081526020016000205490506000811115610cb7576000600a5482610c48919061283d565b90506000811115610cb55780601060008573ffffffffffffffffffffffffffffffffffffffff1673ffffffffffffffffffffffffffffffffffffffff1681526020019081526020016000206000828254610ca2919061286e565b92505081905550610cb4838983611fac565b5b505b50508080600101915050610b9b565b50600a6000815480929190610cda906129c8565b91905055506000600a5403610ebe576000600f541115610dbc57600f5481610d0291906128a2565b905060008473ffffffffffffffffffffffffffffffffffffffff16600f54604051610d2c90612907565b60006040518083038185875af1925050503d8060008114610d69576040519150601f19603f3d011682016040523d82523d6000602084013e610d6e565b606091505b5050905080610db2576040517f08c379a0000000000000000000000000000000000000000000000000000000008152600401610da990612a3d565b60405180910390fd5b6000600f81905550505b60005b600b80549050811015610ebc576000600b8281548110610de257610de1612999565b5b9060005260206000200160009054906101000a900473ffffffffffffffffffffffffffffffffffffffff1690506000601060008373ffffffffffffffffffffffffffffffffffffffff1673ffffffffffffffffffffffffffffffffffffffff1681526020019081526020016000205490506000811115610ead57610e67828883611fac565b6000601060008473ffffffffffffffffffffffffffffffffffffffff1673ffffffffffffffffffffffffffffffffffffffff168152602001908152602001600020819055505b50508080600101915050610dbf565b505b7f151efb0aa5abfe35d398c9082f5edc206e302b61247f0a3477d3ba963ccd34498760001b858389604051602001610ef69190612354565b604051602081830303815290604052604051610f159493929190612b06565b60405180910390a15050610f2761202b565b50505050505050565b60055481565b600e6020528060005260406000206000915090505481565b6060600b805480602002602001604051908101604052809291908181526020018280548015610fd257602002820191906000526020600020905b8160009054906101000a900473ffffffffffffffffffffffffffffffffffffffff1673ffffffffffffffffffffffffffffffffffffffff1681526020019060010190808311610f88575b5050505050905090565b610fe4612034565b600060075403611020576040517f2899fdac00000000000000000000000000000000000000000000000000000000815260040160405180910390fd5b60075442111561105c576040517f864bc47300000000000000000000000000000000000000000000000000000000815260040160405180910390fd5b60006007819055506000600860006101000a81548160ff02191690831515021790555060006009819055506000600a819055506000600d819055506000600f8190555060005b600b8054905081101561118a576000600b82815481106110c5576110c4612999565b5b9060005260206000200160009054906101000a900473ffffffffffffffffffffffffffffffffffffffff1690506000600e60008373ffffffffffffffffffffffffffffffffffffffff1673ffffffffffffffffffffffffffffffffffffffff168152602001908152602001600020819055506000601060008373ffffffffffffffffffffffffffffffffffffffff1673ffffffffffffffffffffffffffffffffffffffff168152602001908152602001600020819055505080806001019150506110a2565b506004544261119991906128a2565b6005819055507fecc892519f7c4956c9856734748829d5d5ecb718b419cb3397002585d3c005ea426040516111ce9190612354565b60405180910390a17f89fa7599b0d9bfca448ea0eda6c061927c29af53b03bbf51b770ec8caf3f7e2d6005546040516112079190612354565b60405180910390a1565b600a5481565b600f5481565b600d5481565b60008060075414801561123857506005544211155b905090565b60008060075414158015611252575060075442115b905090565b600b818154811061126757600080fd5b906000526020600020016000915054906101000a900473ffffffffffffffffffffffffffffffffffffffff1681565b60045481565b6112a4612034565b600073ffffffffffffffffffffffffffffffffffffffff168173ffffffffffffffffffffffffffffffffffffffff160361130a576040517fd92e233d00000000000000000000000000000000000000000000000000000000815260040160405180910390fd5b6000600260009054906101000a900473ffffffffffffffffffffffffffffffffffffffff16905081600260006101000a81548173ffffffffffffffffffffffffffffffffffffffff021916908373ffffffffffffffffffffffffffffffffffffffff1602179055508173ffffffffffffffffffffffffffffffffffffffff168173ffffffffffffffffffffffffffffffffffffffff167fb77796a245a97e66e69fa822f3139780cf4ea983fd046930d08673154424159260405160405180910390a35050565b6000600e60008373ffffffffffffffffffffffffffffffffffffffff1673ffffffffffffffffffffffffffffffffffffffff168152602001908152602001600020549050919050565b611421612034565b61142b60006120bb565b565b6000600b80549050905090565b600260009054906101000a900473ffffffffffffffffffffffffffffffffffffffff1681565b60065481565b61146e612034565b6000600754141580611481575060055442115b156114b8576040517f10f3d9c900000000000000000000000000000000000000000000000000000000815260040160405180910390fd5b600454426114c691906128a2565b6005819055507f89fa7599b0d9bfca448ea0eda6c061927c29af53b03bbf51b770ec8caf3f7e2d6005546040516114fd9190612354565b60405180910390a1565b60008060009054906101000a900473ffffffffffffffffffffffffffffffffffffffff16905090565b611538612034565b600060075414158061154b575060055442115b15611582576040517f10f3d9c900000000000000000000000000000000000000000000000000000000815260040160405180910390fd5b600860009054906101000a900460ff16156115c9576040517f6f4d984900000000000000000000000000000000000000000000000000000000815260040160405180910390fd5b600073ffffffffffffffffffffffffffffffffffffffff168273ffffffffffffffffffffffffffffffffffffffff160361162f576040517fd92e233d00000000000000000000000000000000000000000000000000000000815260040160405180910390fd5b60008103611669576040517f2c5211c600000000000000000000000000000000000000000000000000000000815260040160405180910390fd5b600c60008373ffffffffffffffffffffffffffffffffffffffff1673ffffffffffffffffffffffffffffffffffffffff16815260200190815260200160002060009054906101000a900460ff16611776576001600c60008473ffffffffffffffffffffffffffffffffffffffff1673ffffffffffffffffffffffffffffffffffffffff16815260200190815260200160002060006101000a81548160ff021916908315150217905550600b829080600181540180825580915050600190039060005260206000200160009091909190916101000a81548173ffffffffffffffffffffffffffffffffffffffff021916908373ffffffffffffffffffffffffffffffffffffffff1602179055505b6117828233308461217f565b8173ffffffffffffffffffffffffffffffffffffffff167fab79632de7fe1724598ce2214eaa326d90d48064d2d3397406ecc5769316a5f6826040516117c89190612354565b60405180910390a25050565b600080600754141580156117ea57506007544211155b905090565b6117f7612034565b600060075414158061180a575060055442115b15611841576040517f10f3d9c900000000000000000000000000000000000000000000000000000000815260040160405180910390fd5b600060035490508160038190555081817f6e7dd825a86782539ff2639bbdf0ef7cea96f10e05d6594e6069cb805384508660405160405180910390a35050565b60035481565b600c6020528060005260406000206000915054906101000a900460ff1681565b60106020528060005260406000206000915090505481565b6000806007541415905090565b60095481565b6000600b80549050821061191b576040517f08c379a000000000000000000000000000000000000000000000000000000000815260040161191290612b9e565b60405180910390fd5b600b828154811061192f5761192e612999565b5b9060005260206000200160009054906101000a900473ffffffffffffffffffffffffffffffffffffffff169050919050565b60075481565b61196f612034565b600073ffffffffffffffffffffffffffffffffffffffff168173ffffffffffffffffffffffffffffffffffffffff16036119e15760006040517f1e4fbdf70000000000000000000000000000000000000000000000000000000081526004016119d891906125b9565b60405180910390fd5b6119ea816120bb565b50565b6119f5612034565b6000600754141580611a08575060055442115b15611a3f576040517f10f3d9c900000000000000000000000000000000000000000000000000000000815260040160405180910390fd5b600860009054906101000a900460ff1615611a86576040517f6f4d984900000000000000000000000000000000000000000000000000000000815260040160405180910390fd5b60003403611ac0576040517f2c5211c600000000000000000000000000000000000000000000000000000000815260040160405180910390fd5b7fadb6a3fe015de6cf14b532348b91a6202eb862af051124a853b5935e034cfd7b34604051611aef9190612354565b60405180910390a1565b6005544211611b34576040517fbe948d0600000000000000000000000000000000000000000000000000000000815260040160405180910390fd5b600060075414611b70576040517fc295d67c00000000000000000000000000000000000000000000000000000000815260040160405180910390fd5b6000600260009054906101000a900473ffffffffffffffffffffffffffffffffffffffff1673ffffffffffffffffffffffffffffffffffffffff16637ee35a0c6003546040518263ffffffff1660e01b8152600401611bcf9190612354565b602060405180830381865afa158015611bec573d6000803e3d6000fd5b505050506040513d601f19601f82011682018060405250810190611c109190612bd3565b905060008103611c4c576040517f674f4a7700000000000000000000000000000000000000000000000000000000815260040160405180910390fd5b6001600860006101000a81548160ff0219169083151502179055508060098190555080600a8190555047600d81905550600d54600f8190555060005b600b80549050811015611ded576000600b8281548110611cab57611caa612999565b5b9060005260206000200160009054906101000a900473ffffffffffffffffffffffffffffffffffffffff16905060008173ffffffffffffffffffffffffffffffffffffffff166370a08231306040518263ffffffff1660e01b8152600401611d1391906125b9565b602060405180830381865afa158015611d30573d6000803e3d6000fd5b505050506040513d601f19601f82011682018060405250810190611d549190612bd3565b905080600e60008473ffffffffffffffffffffffffffffffffffffffff1673ffffffffffffffffffffffffffffffffffffffff1681526020019081526020016000208190555080601060008473ffffffffffffffffffffffffffffffffffffffff1673ffffffffffffffffffffffffffffffffffffffff1681526020019081526020016000208190555050508080600101915050611c88565b5060065442611dfc91906128a2565b6007819055507fb41ae2fb12ce02c935f64f50af8d2a997c0aea3342f9655697cc3125b4ea80ea600954600d54600b604051611e3a93929190612cec565b60405180910390a17f06864d945a6410f13c725c139ecfd7514745a01d043c9fbf499d75d605067cad42600754604051611e75929190612d2a565b60405180910390a150565b611e88612034565b6000600754141580611e9b575060055442115b15611ed2576040517f10f3d9c900000000000000000000000000000000000000000000000000000000815260040160405180910390fd5b600260009054906101000a900473ffffffffffffffffffffffffffffffffffffffff1673ffffffffffffffffffffffffffffffffffffffff16631783efc3600354836040518363ffffffff1660e01b8152600401611f31929190612d2a565b600060405180830381600087803b158015611f4b57600080fd5b505af1158015611f5f573d6000803e3d6000fd5b5050505050565b600260015403611fa2576040517f3ee5aeb500000000000000000000000000000000000000000000000000000000815260040160405180910390fd5b6002600181905550565b612026838473ffffffffffffffffffffffffffffffffffffffff1663a9059cbb8585604051602401611fdf929190612d53565b604051602081830303815290604052915060e01b6020820180517bffffffffffffffffffffffffffffffffffffffffffffffffffffffff8381831617835250505050612201565b505050565b60018081905550565b61203c6122a3565b73ffffffffffffffffffffffffffffffffffffffff1661205a611507565b73ffffffffffffffffffffffffffffffffffffffff16146120b95761207d6122a3565b6040517f118cdaa70000000000000000000000000000000000000000000000000000000081526004016120b091906125b9565b60405180910390fd5b565b60008060009054906101000a900473ffffffffffffffffffffffffffffffffffffffff169050816000806101000a81548173ffffffffffffffffffffffffffffffffffffffff021916908373ffffffffffffffffffffffffffffffffffffffff1602179055508173ffffffffffffffffffffffffffffffffffffffff168173ffffffffffffffffffffffffffffffffffffffff167f8be0079c531659141344cd1fd0a4f28419497f9722a3daafe3b4186f6b6457e060405160405180910390a35050565b6121fb848573ffffffffffffffffffffffffffffffffffffffff166323b872dd8686866040516024016121b493929190612d7c565b604051602081830303815290604052915060e01b6020820180517bffffffffffffffffffffffffffffffffffffffffffffffffffffffff8381831617835250505050612201565b50505050565b600080602060008451602086016000885af180612224576040513d6000823e3d81fd5b3d92506000519150506000821461223f57600181141561225b565b60008473ffffffffffffffffffffffffffffffffffffffff163b145b1561229d57836040517f5274afe700000000000000000000000000000000000000000000000000000000815260040161229491906125b9565b60405180910390fd5b50505050565b600033905090565b600080fd5b600073ffffffffffffffffffffffffffffffffffffffff82169050919050565b60006122db826122b0565b9050919050565b6122eb816122d0565b81146122f657600080fd5b50565b600081359050612308816122e2565b92915050565b600060208284031215612324576123236122ab565b5b6000612332848285016122f9565b91505092915050565b6000819050919050565b61234e8161233b565b82525050565b60006020820190506123696000830184612345565b92915050565b60008115159050919050565b6123848161236f565b82525050565b600060208201905061239f600083018461237b565b92915050565b6123ae8161233b565b81146123b957600080fd5b50565b6000813590506123cb816123a5565b92915050565b600080fd5b6000819050826020600802820111156123f2576123f16123d1565b5b92915050565b60008060008060008060006101c0888a031215612418576124176122ab565b5b60006124268a828b016123bc565b97505060206124378a828b016123bc565b96505060406124488a828b016123bc565b95505060606124598a828b016123bc565b945050608061246a8a828b016123d6565b93505061018061247c8a828b016122f9565b9250506101a061248e8a828b016123bc565b91505092959891949750929550565b600081519050919050565b600082825260208201905092915050565b6000819050602082019050919050565b6124d2816122d0565b82525050565b60006124e483836124c9565b60208301905092915050565b6000602082019050919050565b60006125088261249d565b61251281856124a8565b935061251d836124b9565b8060005b8381101561254e57815161253588826124d8565b9750612540836124f0565b925050600181019050612521565b5085935050505092915050565b6000602082019050818103600083015261257581846124fd565b905092915050565b600060208284031215612593576125926122ab565b5b60006125a1848285016123bc565b91505092915050565b6125b3816122d0565b82525050565b60006020820190506125ce60008301846125aa565b92915050565b6000819050919050565b60006125f96125f46125ef846122b0565b6125d4565b6122b0565b9050919050565b600061260b826125de565b9050919050565b600061261d82612600565b9050919050565b61262d81612612565b82525050565b60006020820190506126486000830184612624565b92915050565b60008060408385031215612665576126646122ab565b5b6000612673858286016122f9565b9250506020612684858286016123bc565b9150509250929050565b6126978161233b565b82525050565b600060089050919050565b600081905092915050565b6000819050919050565b60006126c9838361268e565b60208301905092915050565b6000602082019050919050565b6126eb8161269d565b6126f581846126a8565b9250612700826126b3565b8060005b8381101561273157815161271887826126bd565b9650612723836126d5565b925050600181019050612704565b505050505050565b6101a082016000820151612750600085018261268e565b506020820151612763602085018261268e565b506040820151612776604085018261268e565b506060820151612789606085018261268e565b50608082015161279c608085018261268e565b5060a08201516127af60a08501826126e2565b50505050565b60006101c0820190506127cb6000830185612345565b6127d86020830184612739565b9392505050565b7f4e487b7100000000000000000000000000000000000000000000000000000000600052601260045260246000fd5b7f4e487b7100000000000000000000000000000000000000000000000000000000600052601160045260246000fd5b60006128488261233b565b91506128538361233b565b925082612863576128626127df565b5b828204905092915050565b60006128798261233b565b91506128848361233b565b925082820390508181111561289c5761289b61280e565b5b92915050565b60006128ad8261233b565b91506128b88361233b565b92508282019050808211156128d0576128cf61280e565b5b92915050565b600081905092915050565b50565b60006128f16000836128d6565b91506128fc826128e1565b600082019050919050565b6000612912826128e4565b9150819050919050565b600082825260208201905092915050565b7f455448207472616e73666572206661696c656400000000000000000000000000600082015250565b600061296360138361291c565b915061296e8261292d565b602082019050919050565b6000602082019050818103600083015261299281612956565b9050919050565b7f4e487b7100000000000000000000000000000000000000000000000000000000600052603260045260246000fd5b60006129d38261233b565b9150600082036129e6576129e561280e565b5b600182039050919050565b7f4554482064757374207472616e73666572206661696c65640000000000000000600082015250565b6000612a2760188361291c565b9150612a32826129f1565b602082019050919050565b60006020820190508181036000830152612a5681612a1a565b9050919050565b6000819050919050565b612a7081612a5d565b82525050565b600081519050919050565b600082825260208201905092915050565b60005b83811015612ab0578082015181840152602081019050612a95565b60008484015250505050565b6000601f19601f8301169050919050565b6000612ad882612a76565b612ae28185612a81565b9350612af2818560208601612a92565b612afb81612abc565b840191505092915050565b6000608082019050612b1b6000830187612a67565b612b2860208301866125aa565b612b356040830185612345565b8181036060830152612b478184612acd565b905095945050505050565b7f496e646578206f7574206f6620626f756e647300000000000000000000000000600082015250565b6000612b8860138361291c565b9150612b9382612b52565b602082019050919050565b60006020820190508181036000830152612bb781612b7b565b9050919050565b600081519050612bcd816123a5565b92915050565b600060208284031215612be957612be86122ab565b5b6000612bf784828501612bbe565b91505092915050565b600081549050919050565b60008190508160005260206000209050919050565b60008160001c9050919050565b600073ffffffffffffffffffffffffffffffffffffffff82169050919050565b6000612c60612c5b83612c20565b612c2d565b9050919050565b6000612c738254612c4d565b9050919050565b6000600182019050919050565b6000612c9282612c00565b612c9c81856124a8565b9350612ca783612c0b565b8060005b83811015612cdf57612cbc82612c67565b612cc688826124d8565b9750612cd183612c7a565b925050600181019050612cab565b5085935050505092915050565b6000606082019050612d016000830186612345565b612d0e6020830185612345565b8181036040830152612d208184612c87565b9050949350505050565b6000604082019050612d3f6000830185612345565b612d4c6020830184612345565b9392505050565b6000604082019050612d6860008301856125aa565b612d756020830184612345565b9392505050565b6000606082019050612d9160008301866125aa565b612d9e60208301856125aa565b612dab6040830184612345565b94935050505056fea264697066735822122004e93d1d6e4a96299dca6bfccde6c4df774d858c42a634ff051f2032c8aaabb464736f6c63430008170033",
  "linkReferences": {},
  "deployedLinkReferences": {}
}