{
  "_format": "hh-sol-artifact-1",
  "contractName": "InheritanceVault",
  "sourceName": "contracts/InheritanceVault.sol",
  "abi": [
    {
      "inputs": [
        {
          "internalType": "address",
          "name": "semaphoreAddress",
          "type": "address"
        },
        {
          "internalType": "uint256",
          "name": "_heartbeatInterval",
          "type": "uint256"
        },
        {
          "internalType": "uint256",
          "name": "_challengeWindow",
          "type": "uint256"
        }
      ],
      "stateMutability": "nonpayable",
      "type": "constructor"
    },
    {
      "inputs": [],
      "name": "AlreadyInitialized",
      "type": "error"
    },
    {
      "inputs": [],
      "name": "ChallengeWindowOver",
      "type": "error"
    },
    {
      "inputs": [],
      "name": "ClaimNotOpen",
      "type": "error"
    },
    {
      "inputs": [],
      "name": "Expired",
      "type": "error"
    },
    {
      "inputs": [],
      "name": "ExpiryAlreadyStarted",
      "type": "error"
    },
    {
      "inputs": [],
      "name": "ExpiryNotStarted",
      "type": "error"
    },
    {
      "inputs": [],
      "name": "InvalidParams",
      "type": "error"
    },
    {
      "inputs": [],
      "name": "InvalidProof",
      "type": "error"
    },
    {
      "inputs": [],
      "name": "NewOwnerIsZeroAddress",
      "type": "error"
    },
    {
      "inputs": [],
      "name": "NoHandoverRequest",
      "type": "error"
    },
    {
      "inputs": [],
      "name": "NotAlive",
      "type": "error"
    },
    {
      "inputs": [],
      "name": "NotInChallengeWindow",
      "type": "error"
    },
    {
      "inputs": [],
      "name": "StillAlive",
      "type": "error"
    },
    {
      "inputs": [],
      "name": "Unauthorized",
      "type": "error"
    },
    {
      "inputs": [],
      "name": "ZeroAddress",
      "type": "error"
    },
    {
      "anonymous": false,
      "inputs": [
        {
          "indexed": false,
          "internalType": "bytes32",
          "name": "nullifierHash",
          "type": "bytes32"
        },
        {
          "indexed": false,
          "internalType": "address",
          "name": "to",
          "type": "address"
        },
        {
          "indexed": false,
          "internalType": "uint256",
          "name": "amount",
          "type": "uint256"
        },
        {
          "indexed": false,
          "internalType": "bytes",
          "name": "signal",
          "type": "bytes"
        }
      ],
      "name": "Claimed",
      "type": "event"
    },
    {
      "anonymous": false,
      "inputs": [
        {
          "indexed": false,
          "internalType": "uint256",
          "name": "at",
          "type": "uint256"
        }
      ],
      "name": "ExpiryRevoked",
      "type": "event"
    },
    {
      "anonymous": false,
      "inputs": [
        {
          "indexed": false,
          "internalType": "uint256",
          "name": "at",
          "type": "uint256"
        },
        {
          "indexed": false,
          "internalType": "uint256",
          "name": "challengeWindowEnd",
          "type": "uint256"
        }
      ],
      "name": "ExpiryStarted",
      "type": "event"
    },
    {
      "anonymous": false,
      "inputs": [
        {
          "indexed": true,
          "internalType": "uint256",
          "name": "oldGroupId",
          "type": "uint256"
        },
        {
          "indexed": true,
          "internalType": "uint256",
          "name": "newGroupId",
          "type": "uint256"
        }
      ],
      "name": "GroupIdUpdated",
      "type": "event"
    },
    {
      "anonymous": false,
      "inputs": [
        {
          "indexed": false,
          "internalType": "uint256",
          "name": "nextDeadline",
          "type": "uint256"
        }
      ],
      "name": "Heartbeat",
      "type": "event"
    },
    {
      "anonymous": false,
      "inputs": [
        {
          "indexed": true,
          "internalType": "address",
          "name": "pendingOwner",
          "type": "address"
        }
      ],
      "name": "OwnershipHandoverCanceled",
      "type": "event"
    },
    {
      "anonymous": false,
      "inputs": [
        {
          "indexed": true,
          "internalType": "address",
          "name": "pendingOwner",
          "type": "address"
        }
      ],
      "name": "OwnershipHandoverRequested",
      "type": "event"
    },
    {
      "anonymous": false,
      "inputs": [
        {
          "indexed": true,
          "internalType": "address",
          "name": "oldOwner",
          "type": "address"
        },
        {
          "indexed": true,
          "internalType": "address",
          "name": "newOwner",
          "type": "address"
        }
      ],
      "name": "OwnershipTransferred",
      "type": "event"
    },
    {
      "anonymous": false,
      "inputs": [
        {
          "indexed": true,
          "internalType": "address",
          "name": "oldSemaphore",
          "type": "address"
        },
        {
          "indexed": true,
          "internalType": "address",
          "name": "newSemaphore",
          "type": "address"
        }
      ],
      "name": "SemaphoreUpdated",
      "type": "event"
    },
    {
      "inputs": [
        {
          "internalType": "uint256",
          "name": "identityCommitment",
          "type": "uint256"
        }
      ],
      "name": "addHeir",
      "outputs": [],
      "stateMutability": "nonpayable",
      "type": "function"
    },
    {
      "inputs": [],
      "name": "cancelOwnershipHandover",
      "outputs": [],
      "stateMutability": "payable",
      "type": "function"
    },
    {
      "inputs": [],
      "name": "challengeWindow",
      "outputs": [
        {
          "internalType": "uint256",
          "name": "",
          "type": "uint256"
        }
      ],
      "stateMutability": "view",
      "type": "function"
    },
    {
      "inputs": [],
      "name": "challengeWindowEnd",
      "outputs": [
        {
          "internalType": "uint256",
          "name": "",
          "type": "uint256"
        }
      ],
      "stateMutability": "view",
      "type": "function"
    },
    {
      "inputs": [
        {
          "internalType": "uint256",
          "name": "merkleTreeDepth",
          "type": "uint256"
        },
        {
          "internalType": "uint256",
          "name": "merkleTreeRoot",
          "type": "uint256"
        },
        {
          "internalType": "uint256",
          "name": "nullifier",
          "type": "uint256"
        },
        {
          "internalType": "uint256",
          "name": "signal",
          "type": "uint256"
        },
        {
          "internalType": "uint256[8]",
          "name": "points",
          "type": "uint256[8]"
        },
        {
          "internalType": "address",
          "name": "to",
          "type": "address"
        },
        {
          "internalType": "uint256",
          "name": "amount",
          "type": "uint256"
        }
      ],
      "name": "claim",
      "outputs": [],
      "stateMutability": "nonpayable",
      "type": "function"
    },
    {
      "inputs": [],
      "name": "claimOpen",
      "outputs": [
        {
          "internalType": "bool",
          "name": "",
          "type": "bool"
        }
      ],
      "stateMutability": "view",
      "type": "function"
    },
    {
      "inputs": [
        {
          "internalType": "address",
          "name": "pendingOwner",
          "type": "address"
        }
      ],
      "name": "completeOwnershipHandover",
      "outputs": [],
      "stateMutability": "payable",
      "type": "function"
    },
    {
      "inputs": [],
      "name": "groupId",
      "outputs": [
        {
          "internalType": "uint256",
          "name": "",
          "type": "uint256"
        }
      ],
      "stateMutability": "view",
      "type": "function"
    },
    {
      "inputs": [],
      "name": "heartbeatInterval",
      "outputs": [
        {
          "internalType": "uint256",
          "name": "",
          "type": "uint256"
        }
      ],
      "stateMutability": "view",
      "type": "function"
    },
    {
      "inputs": [],
      "name": "inChallengeWindow",
      "outputs": [
        {
          "internalType": "bool",
          "name": "",
          "type": "bool"
        }
      ],
      "stateMutability": "view",
      "type": "function"
    },
    {
      "inputs": [],
      "name": "inExpiry",
      "outputs": [
        {
          "internalType": "bool",
          "name": "",
          "type": "bool"
        }
      ],
      "stateMutability": "view",
      "type": "function"
    },
    {
      "inputs": [],
      "name": "isAlive",
      "outputs": [
        {
          "internalType": "bool",
          "name": "",
          "type": "bool"
        }
      ],
      "stateMutability": "view",
      "type": "function"
    },
    {
      "inputs": [],
      "name": "keepAlive",
      "outputs": [],
      "stateMutability": "nonpayable",
      "type": "function"
    },
    {
      "inputs": [],
      "name": "nextDeadline",
      "outputs": [
        {
          "internalType": "uint256",
          "name": "",
          "type": "uint256"
        }
      ],
      "stateMutability": "view",
      "type": "function"
    },
    {
      "inputs": [],
      "name": "owner",
      "outputs": [
        {
          "internalType": "address",
          "name": "result",
          "type": "address"
        }
      ],
      "stateMutability": "view",
      "type": "function"
    },
    {
      "inputs": [
        {
          "internalType": "address",
          "name": "pendingOwner",
          "type": "address"
        }
      ],
      "name": "ownershipHandoverExpiresAt",
      "outputs": [
        {
          "internalType": "uint256",
          "name": "result",
          "type": "uint256"
        }
      ],
      "stateMutability": "view",
      "type": "function"
    },
    {
      "inputs": [],
      "name": "renounceOwnership",
      "outputs": [],
      "stateMutability": "payable",
      "type": "function"
    },
    {
      "inputs": [],
      "name": "requestOwnershipHandover",
      "outputs": [],
      "stateMutability": "payable",
      "type": "function"
    },
    {
      "inputs": [],
      "name": "revokeExpiry",
      "outputs": [],
      "stateMutability": "nonpayable",
      "type": "function"
    },
    {
      "inputs": [],
      "name": "semaphore",
      "outputs": [
        {
          "internalType": "contract ISemaphore",
          "name": "",
          "type": "address"
        }
      ],
      "stateMutability": "view",
      "type": "function"
    },
    {
      "inputs": [
        {
          "internalType": "uint256",
          "name": "newGroupId",
          "type": "uint256"
        }
      ],
      "name": "setGroupId",
      "outputs": [],
      "stateMutability": "nonpayable",
      "type": "function"
    },
    {
      "inputs": [
        {
          "internalType": "address",
          "name": "newSemaphore",
          "type": "address"
        }
      ],
      "name": "setSemaphore",
      "outputs": [],
      "stateMutability": "nonpayable",
      "type": "function"
    },
    {
      "inputs": [],
      "name": "startExpiry",
      "outputs": [],
      "stateMutability": "nonpayable",
      "type": "function"
    },
    {
      "inputs": [
        {
          "internalType": "address",
          "name": "newOwner",
          "type": "address"
        }
      ],
      "name": "transferOwnership",
      "outputs": [],
      "stateMutability": "payable",
      "type": "function"
    }
  ],
  "bytecode": "0x60806040523480156200001157600080fd5b5060405162001a3838038062001a38833981810160405281019062000037919062000405565b600073ffffffffffffffffffffffffffffffffffffffff168373ffffffffffffffffffffffffffffffffffffffff16036200009e576040517fd92e233d00000000000000000000000000000000000000000000000000000000815260040160405180910390fd5b6000821480620000ae5750600081145b15620000e6576040517fa86b651200000000000000000000000000000000000000000000000000000000815260040160405180910390fd5b620000f7336200027560201b60201c565b826000806101000a81548173ffffffffffffffffffffffffffffffffffffffff021916908373ffffffffffffffffffffffffffffffffffffffff1602179055508160028190555080600481905550814262000153919062000490565b60038190555060008054906101000a900473ffffffffffffffffffffffffffffffffffffffff1673ffffffffffffffffffffffffffffffffffffffff16635c3f3b60306040518263ffffffff1660e01b8152600401620001b49190620004dc565b6020604051808303816000875af1158015620001d4573d6000803e3d6000fd5b505050506040513d601f19601f82011682018060405250810190620001fa9190620004f9565b60018190555060015460007f6e7dd825a86782539ff2639bbdf0ef7cea96f10e05d6594e6069cb805384508660405160405180910390a37f89fa7599b0d9bfca448ea0eda6c061927c29af53b03bbf51b770ec8caf3f7e2d6003546040516200026491906200053c565b60405180910390a150505062000559565b620002856200035b60201b60201c565b1562000303577fffffffffffffffffffffffffffffffffffffffffffffffffffffffff74873927805415620002c257630dc149f06000526004601cfd5b8160601b60601c9150811560ff1b821781558160007f8be0079c531659141344cd1fd0a4f28419497f9722a3daafe3b4186f6b6457e0600080a35062000358565b8060601b60601c9050807fffffffffffffffffffffffffffffffffffffffffffffffffffffffff74873927558060007f8be0079c531659141344cd1fd0a4f28419497f9722a3daafe3b4186f6b6457e0600080a35b50565b600090565b600080fd5b600073ffffffffffffffffffffffffffffffffffffffff82169050919050565b6000620003928262000365565b9050919050565b620003a48162000385565b8114620003b057600080fd5b50565b600081519050620003c48162000399565b92915050565b6000819050919050565b620003df81620003ca565b8114620003eb57600080fd5b50565b600081519050620003ff81620003d4565b92915050565b60008060006060848603121562000421576200042062000360565b5b60006200043186828701620003b3565b93505060206200044486828701620003ee565b92505060406200045786828701620003ee565b9150509250925092565b7f4e487b7100000000000000000000000000000000000000000000000000000000600052601160045260246000fd5b60006200049d82620003ca565b9150620004aa83620003ca565b9250828201905080821115620004c557620004c462000461565b5b92915050565b620004d68162000385565b82525050565b6000602082019050620004f36000830184620004cb565b92915050565b60006020828403121562000512576200051162000360565b5b60006200052284828501620003ee565b91505092915050565b6200053681620003ca565b82525050565b60006020820190506200055360008301846200052b565b92915050565b6114cf80620005696000396000f3fe60806040526004361061014b5760003560e01c806387740c0d116100b6578063ee1c28b81161006f578063ee1c28b8146103c5578063f04e283e146103f0578063f2fde38b1461040c578063f79f524514610428578063fee81cf41461043f578063ffa28fa91461047c5761014b565b806387740c0d146102d95780638da5cb5b146102f05780639b06a6421461031b578063a0191fd214610346578063a0f44c921461036f578063c627ae5f1461039a5761014b565b806354d1f13d1161010857806354d1f13d1461021b578063561a4fac146102255780635a58de2f14610250578063715018a6146102795780637b5d253414610283578063861a1412146102ae5761014b565b80630b14486a14610150578063205179841461017957806325692962146101a45780632a642bfe146101ae5780634136aa35146101c55780634b8bcb58146101f0575b600080fd5b34801561015c57600080fd5b5061017760048036038101906101729190610fc4565b6104a5565b005b34801561018557600080fd5b5061018e6106e4565b60405161019b9190611078565b60405180910390f35b6101ac6106ea565b005b3480156101ba57600080fd5b506101c361073e565b005b3480156101d157600080fd5b506101da61084c565b6040516101e791906110ae565b60405180910390f35b3480156101fc57600080fd5b50610205610866565b60405161021291906110ae565b60405180910390f35b610223610880565b005b34801561023157600080fd5b5061023a6108bc565b6040516102479190611078565b60405180910390f35b34801561025c57600080fd5b50610277600480360381019061027291906110c9565b6108c2565b005b6102816109f4565b005b34801561028f57600080fd5b50610298610a08565b6040516102a59190611155565b60405180910390f35b3480156102ba57600080fd5b506102c3610a2c565b6040516102d09190611078565b60405180910390f35b3480156102e557600080fd5b506102ee610a32565b005b3480156102fc57600080fd5b50610305610ad3565b604051610312919061117f565b60405180910390f35b34801561032757600080fd5b50610330610afc565b60405161033d91906110ae565b60405180910390f35b34801561035257600080fd5b5061036d6004803603810190610368919061119a565b610b17565b005b34801561037b57600080fd5b50610384610ba9565b6040516103919190611078565b60405180910390f35b3480156103a657600080fd5b506103af610baf565b6040516103bc91906110ae565b60405180910390f35b3480156103d157600080fd5b506103da610bbc565b6040516103e79190611078565b60405180910390f35b61040a600480360381019061040591906110c9565b610bc2565b005b610426600480360381019061042191906110c9565b610c03565b005b34801561043457600080fd5b5061043d610c2d565b005b34801561044b57600080fd5b50610466600480360381019061046191906110c9565b610cf5565b6040516104739190611078565b60405180910390f35b34801561048857600080fd5b506104a3600480360381019061049e919061119a565b610d10565b005b6000600554036104e1576040517f2899fdac00000000000000000000000000000000000000000000000000000000815260040160405180910390fd5b600554421161051c576040517f6b68780600000000000000000000000000000000000000000000000000000000815260040160405180910390fd5b600073ffffffffffffffffffffffffffffffffffffffff168273ffffffffffffffffffffffffffffffffffffffff1603610582576040517fd92e233d00000000000000000000000000000000000000000000000000000000815260040160405180910390fd5b60006040518060c001604052808981526020018881526020018781526020018681526020016001548152602001856008806020026040519081016040528092919082600860200280828437600081840152601f19601f820116905080830192505050505050815250905060008054906101000a900473ffffffffffffffffffffffffffffffffffffffff1673ffffffffffffffffffffffffffffffffffffffff1663d0d898dd600154836040518363ffffffff1660e01b81526004016106499291906112ee565b600060405180830381600087803b15801561066357600080fd5b505af1158015610677573d6000803e3d6000fd5b505050507f151efb0aa5abfe35d398c9082f5edc206e302b61247f0a3477d3ba963ccd34498660001b8484886040516020016106b39190611078565b6040516020818303038152906040526040516106d294939291906113c1565b60405180910390a15050505050505050565b60035481565b60006106f4610df4565b67ffffffffffffffff164201905063389a75e1600c5233600052806020600c2055337fdbf36a107da19e49527a7176a1babf963b4b0ff8cde35ee35d6cd8f1f9ac7e1d600080a250565b610746610dff565b600060055403610782576040517f2899fdac00000000000000000000000000000000000000000000000000000000815260040160405180910390fd5b6005544211156107be576040517f864bc47300000000000000000000000000000000000000000000000000000000815260040160405180910390fd5b6000600581905550600254426107d4919061143c565b6003819055507fecc892519f7c4956c9856734748829d5d5ecb718b419cb3397002585d3c005ea426040516108099190611078565b60405180910390a17f89fa7599b0d9bfca448ea0eda6c061927c29af53b03bbf51b770ec8caf3f7e2d6003546040516108429190611078565b60405180910390a1565b60008060055414801561086157506003544211155b905090565b6000806005541415801561087b575060055442115b905090565b63389a75e1600c523360005260006020600c2055337ffa7b8eab7da67f412cc9575ed43464468f9bfbae89d1675917346ca6d8fe3c92600080a2565b60025481565b6108ca610dff565b600073ffffffffffffffffffffffffffffffffffffffff168173ffffffffffffffffffffffffffffffffffffffff1603610930576040517fd92e233d00000000000000000000000000000000000000000000000000000000815260040160405180910390fd5b60008060009054906101000a900473ffffffffffffffffffffffffffffffffffffffff169050816000806101000a81548173ffffffffffffffffffffffffffffffffffffffff021916908373ffffffffffffffffffffffffffffffffffffffff1602179055508173ffffffffffffffffffffffffffffffffffffffff168173ffffffffffffffffffffffffffffffffffffffff167fb77796a245a97e66e69fa822f3139780cf4ea983fd046930d08673154424159260405160405180910390a35050565b6109fc610dff565b610a066000610e37565b565b60008054906101000a900473ffffffffffffffffffffffffffffffffffffffff1681565b60045481565b610a3a610dff565b6000600554141580610a4d575060035442115b15610a84576040517f10f3d9c900000000000000000000000000000000000000000000000000000000815260040160405180910390fd5b60025442610a92919061143c565b6003819055507f89fa7599b0d9bfca448ea0eda6c061927c29af53b03bbf51b770ec8caf3f7e2d600354604051610ac99190611078565b60405180910390a1565b60007fffffffffffffffffffffffffffffffffffffffffffffffffffffffff7487392754905090565b60008060055414158015610b1257506005544211155b905090565b610b1f610dff565b6000600554141580610b32575060035442115b15610b69576040517f10f3d9c900000000000000000000000000000000000000000000000000000000815260040160405180910390fd5b600060015490508160018190555081817f6e7dd825a86782539ff2639bbdf0ef7cea96f10e05d6594e6069cb805384508660405160405180910390a35050565b60015481565b6000806005541415905090565b60055481565b610bca610dff565b63389a75e1600c52806000526020600c208054421115610bf257636f5e88186000526004601cfd5b6000815550610c0081610e37565b50565b610c0b610dff565b8060601b610c2157637448fbae6000526004601cfd5b610c2a81610e37565b50565b6003544211610c68576040517fbe948d0600000000000000000000000000000000000000000000000000000000815260040160405180910390fd5b600060055414610ca4576040517fc295d67c00000000000000000000000000000000000000000000000000000000815260040160405180910390fd5b60045442610cb2919061143c565b6005819055507f06864d945a6410f13c725c139ecfd7514745a01d043c9fbf499d75d605067cad42600554604051610ceb929190611470565b60405180910390a1565b600063389a75e1600c52816000526020600c20549050919050565b610d18610dff565b6000600554141580610d2b575060035442115b15610d62576040517f10f3d9c900000000000000000000000000000000000000000000000000000000815260040160405180910390fd5b60008054906101000a900473ffffffffffffffffffffffffffffffffffffffff1673ffffffffffffffffffffffffffffffffffffffff16631783efc3600154836040518363ffffffff1660e01b8152600401610dbf929190611470565b600060405180830381600087803b158015610dd957600080fd5b505af1158015610ded573d6000803e3d6000fd5b5050505050565b60006202a300905090565b7fffffffffffffffffffffffffffffffffffffffffffffffffffffffff74873927543314610e35576382b429006000526004601cfd5b565b610e3f610eff565b15610ea5577fffffffffffffffffffffffffffffffffffffffffffffffffffffffff748739278160601b60601c91508181547f8be0079c531659141344cd1fd0a4f28419497f9722a3daafe3b4186f6b6457e0600080a3811560ff1b8217815550610efc565b7fffffffffffffffffffffffffffffffffffffffffffffffffffffffff748739278160601b60601c91508181547f8be0079c531659141344cd1fd0a4f28419497f9722a3daafe3b4186f6b6457e0600080a3818155505b50565b600090565b600080fd5b6000819050919050565b610f1c81610f09565b8114610f2757600080fd5b50565b600081359050610f3981610f13565b92915050565b600080fd5b600081905082602060080282011115610f6057610f5f610f3f565b5b92915050565b600073ffffffffffffffffffffffffffffffffffffffff82169050919050565b6000610f9182610f66565b9050919050565b610fa181610f86565b8114610fac57600080fd5b50565b600081359050610fbe81610f98565b92915050565b60008060008060008060006101c0888a031215610fe457610fe3610f04565b5b6000610ff28a828b01610f2a565b97505060206110038a828b01610f2a565b96505060406110148a828b01610f2a565b95505060606110258a828b01610f2a565b94505060806110368a828b01610f44565b9350506101806110488a828b01610faf565b9250506101a061105a8a828b01610f2a565b91505092959891949750929550565b61107281610f09565b82525050565b600060208201905061108d6000830184611069565b92915050565b60008115159050919050565b6110a881611093565b82525050565b60006020820190506110c3600083018461109f565b92915050565b6000602082840312156110df576110de610f04565b5b60006110ed84828501610faf565b91505092915050565b6000819050919050565b600061111b61111661111184610f66565b6110f6565b610f66565b9050919050565b600061112d82611100565b9050919050565b600061113f82611122565b9050919050565b61114f81611134565b82525050565b600060208201905061116a6000830184611146565b92915050565b61117981610f86565b82525050565b60006020820190506111946000830184611170565b92915050565b6000602082840312156111b0576111af610f04565b5b60006111be84828501610f2a565b91505092915050565b6111d081610f09565b82525050565b600060089050919050565b600081905092915050565b6000819050919050565b600061120283836111c7565b60208301905092915050565b6000602082019050919050565b611224816111d6565b61122e81846111e1565b9250611239826111ec565b8060005b8381101561126a57815161125187826111f6565b965061125c8361120e565b92505060018101905061123d565b505050505050565b6101a08201600082015161128960008501826111c7565b50602082015161129c60208501826111c7565b5060408201516112af60408501826111c7565b5060608201516112c260608501826111c7565b5060808201516112d560808501826111c7565b5060a08201516112e860a085018261121b565b50505050565b60006101c0820190506113046000830185611069565b6113116020830184611272565b9392505050565b6000819050919050565b61132b81611318565b82525050565b600081519050919050565b600082825260208201905092915050565b60005b8381101561136b578082015181840152602081019050611350565b60008484015250505050565b6000601f19601f8301169050919050565b600061139382611331565b61139d818561133c565b93506113ad81856020860161134d565b6113b681611377565b840191505092915050565b60006080820190506113d66000830187611322565b6113e36020830186611170565b6113f06040830185611069565b81810360608301526114028184611388565b905095945050505050565b7f4e487b7100000000000000000000000000000000000000000000000000000000600052601160045260246000fd5b600061144782610f09565b915061145283610f09565b925082820190508082111561146a5761146961140d565b5b92915050565b60006040820190506114856000830185611069565b6114926020830184611069565b939250505056fea264697066735822122006cad7a773000bb7d4f2d39697225e989b314e59c5fe246f34e8746e58137eab64736f6c63430008170033",
  "linkReferences": {},
  "deployedLinkReferences": {}
}